{"abi":[{"type":"constructor","inputs":[{"name":"_governor","type":"address","internalType":"address"},{"name":"_safety","type":"address","internalType":"address"},{"name":"_treasury","type":"address","internalType":"address"}],"stateMutability":"nonpayable"},{"type":"function","name":"FAILURE_THRESHOLD","inputs":[],"outputs":[{"name":"","type":"uint256","internalType":"uint256"}],"stateMutability":"view"},{"type":"function","name":"FAILURE_WINDOW","inputs":[],"outputs":[{"name":"","type":"uint256","internalType":"uint256"}],"stateMutability":"view"},{"type":"function","name":"MAX_RETRIES","inputs":[],"outputs":[{"name":"","type":"uint256","internalType":"uint256"}],"stateMutability":"view"},{"type":"function","name":"authorizedExecutors","inputs":[{"name":"","type":"address","internalType":"address"}],"outputs":[{"name":"","type":"bool","internalType":"bool"}],"stateMutability":"view"},{"type":"function","name":"claimExecution","inputs":[{"name":"executionId","type":"uint256","internalType":"uint256"}],"outputs":[],"stateMutability":"nonpayable"},{"type":"function","name":"confirmExecution","inputs":[{"name":"executionId","type":"uint256","internalType":"uint256"},{"name":"success","type":"bool","internalType":"bool"},{"name":"resultURI","type":"string","internalType":"string"}],"outputs":[],"stateMutability":"nonpayable"},{"type":"function","name":"consecutiveFailures","inputs":[],"outputs":[{"name":"","type":"uint256","internalType":"uint256"}],"stateMutability":"view"},{"type":"function","name":"executionCount","inputs":[],"outputs":[{"name":"","type":"uint256","internalType":"uint256"}],"stateMutability":"view"},{"type":"function","name":"executionTimeout","inputs":[],"outputs":[{"name":"","type":"uint256","internalType":"uint256"}],"stateMutability":"view"},{"type":"function","name":"executions","inputs":[{"name":"","type":"uint256","internalType":"uint256"}],"outputs":[{"name":"promptHash","type":"bytes32","internalType":"bytes32"},{"name":"tier","type":"uint8","internalType":"uint8"},{"name":"timestamp","type":"uint256","internalType":"uint256"},{"name":"executed","type":"bool","internalType":"bool"},{"name":"success","type":"bool","internalType":"bool"},{"name":"executor","type":"address","internalType":"address"},{"name":"resultURI","type":"string","internalType":"string"},{"name":"retryCount","type":"uint256","internalType":"uint256"}],"stateMutability":"view"},{"type":"function","name":"forceFailExecution","inputs":[{"name":"executionId","type":"uint256","internalType":"uint256"}],"outputs":[],"stateMutability":"nonpayable"},{"type":"function","name":"getCycleInfo","inputs":[],"outputs":[{"name":"cycle","type":"uint256","internalType":"uint256"},{"name":"startTime","type":"uint256","internalType":"uint256"},{"name":"timeRemaining","type":"uint256","internalType":"uint256"}],"stateMutability":"view"},{"type":"function","name":"getExecution","inputs":[{"name":"executionId","type":"uint256","internalType":"uint256"}],"outputs":[{"name":"","type":"tuple","internalType":"struct KaraExecutor.Execution","components":[{"name":"promptHash","type":"bytes32","internalType":"bytes32"},{"name":"tier","type":"uint8","internalType":"uint8"},{"name":"timestamp","type":"uint256","internalType":"uint256"},{"name":"executed","type":"bool","internalType":"bool"},{"name":"success","type":"bool","internalType":"bool"},{"name":"executor","type":"address","internalType":"address"},{"name":"resultURI","type":"string","internalType":"string"},{"name":"retryCount","type":"uint256","internalType":"uint256"}]}],"stateMutability":"view"},{"type":"function","name":"getExecutionByPrompt","inputs":[{"name":"promptHash","type":"bytes32","internalType":"bytes32"}],"outputs":[{"name":"","type":"uint256","internalType":"uint256"}],"stateMutability":"view"},{"type":"function","name":"getPendingExecutionIds","inputs":[],"outputs":[{"name":"","type":"uint256[]","internalType":"uint256[]"}],"stateMutability":"view"},{"type":"function","name":"getPendingExecutions","inputs":[],"outputs":[{"name":"","type":"tuple[]","internalType":"struct KaraExecutor.Execution[]","components":[{"name":"promptHash","type":"bytes32","internalType":"bytes32"},{"name":"tier","type":"uint8","internalType":"uint8"},{"name":"timestamp","type":"uint256","internalType":"uint256"},{"name":"executed","type":"bool","internalType":"bool"},{"name":"success","type":"bool","internalType":"bool"},{"name":"executor","type":"address","internalType":"address"},{"name":"resultURI","type":"string","internalType":"string"},{"name":"retryCount","type":"uint256","internalType":"uint256"}]}],"stateMutability":"view"},{"type":"function","name":"governor","inputs":[],"outputs":[{"name":"","type":"address","internalType":"contract IKaraGovernor"}],"stateMutability":"view"},{"type":"function","name":"isAuthorizedExecutor","inputs":[{"name":"executor","type":"address","internalType":"address"}],"outputs":[{"name":"","type":"bool","internalType":"bool"}],"stateMutability":"view"},{"type":"function","name":"lastFailureTime","inputs":[],"outputs":[{"name":"","type":"uint256","internalType":"uint256"}],"stateMutability":"view"},{"type":"function","name":"owner","inputs":[],"outputs":[{"name":"","type":"address","internalType":"address"}],"stateMutability":"view"},{"type":"function","name":"pendingCount","inputs":[],"outputs":[{"name":"","type":"uint256","internalType":"uint256"}],"stateMutability":"view"},{"type":"function","name":"promptToExecution","inputs":[{"name":"","type":"bytes32","internalType":"bytes32"}],"outputs":[{"name":"","type":"uint256","internalType":"uint256"}],"stateMutability":"view"},{"type":"function","name":"receiveBatchExecution","inputs":[{"name":"promptHashes","type":"bytes32[]","internalType":"bytes32[]"},{"name":"tiers","type":"uint8[]","internalType":"uint8[]"}],"outputs":[],"stateMutability":"nonpayable"},{"type":"function","name":"receiveExecution","inputs":[{"name":"promptHash","type":"bytes32","internalType":"bytes32"},{"name":"tier","type":"uint8","internalType":"uint8"}],"outputs":[{"name":"","type":"uint256","internalType":"uint256"}],"stateMutability":"nonpayable"},{"type":"function","name":"renounceOwnership","inputs":[],"outputs":[],"stateMutability":"nonpayable"},{"type":"function","name":"requestRetry","inputs":[{"name":"executionId","type":"uint256","internalType":"uint256"}],"outputs":[],"stateMutability":"nonpayable"},{"type":"function","name":"safety","inputs":[],"outputs":[{"name":"","type":"address","internalType":"contract IKaraSafety"}],"stateMutability":"view"},{"type":"function","name":"setExecutionTimeout","inputs":[{"name":"newTimeout","type":"uint256","internalType":"uint256"}],"outputs":[],"stateMutability":"nonpayable"},{"type":"function","name":"setExecutorAuthorization","inputs":[{"name":"executor","type":"address","internalType":"address"},{"name":"authorized","type":"bool","internalType":"bool"}],"outputs":[],"stateMutability":"nonpayable"},{"type":"function","name":"shouldTriggerCircuitBreaker","inputs":[],"outputs":[{"name":"","type":"bool","internalType":"bool"}],"stateMutability":"view"},{"type":"function","name":"transferOwnership","inputs":[{"name":"newOwner","type":"address","internalType":"address"}],"outputs":[],"stateMutability":"nonpayable"},{"type":"function","name":"treasury","inputs":[],"outputs":[{"name":"","type":"address","internalType":"contract IKaraTreasury"}],"stateMutability":"view"},{"type":"function","name":"updateContracts","inputs":[{"name":"_governor","type":"address","internalType":"address"},{"name":"_safety","type":"address","internalType":"address"},{"name":"_treasury","type":"address","internalType":"address"}],"outputs":[],"stateMutability":"nonpayable"},{"type":"event","name":"BatchExecutionRequested","inputs":[{"name":"promptHashes","type":"bytes32[]","indexed":false,"internalType":"bytes32[]"},{"name":"tiers","type":"uint8[]","indexed":false,"internalType":"uint8[]"},{"name":"executionIds","type":"uint256[]","indexed":false,"internalType":"uint256[]"}],"anonymous":false},{"type":"event","name":"ExecutionClaimed","inputs":[{"name":"executionId","type":"uint256","indexed":true,"internalType":"uint256"},{"name":"executor","type":"address","indexed":true,"internalType":"address"}],"anonymous":false},{"type":"event","name":"ExecutionCompleted","inputs":[{"name":"executionId","type":"uint256","indexed":true,"internalType":"uint256"},{"name":"success","type":"bool","indexed":false,"internalType":"bool"},{"name":"resultURI","type":"string","indexed":false,"internalType":"string"}],"anonymous":false},{"type":"event","name":"ExecutionFailed","inputs":[{"name":"executionId","type":"uint256","indexed":true,"internalType":"uint256"},{"name":"reason","type":"string","indexed":false,"internalType":"string"}],"anonymous":false},{"type":"event","name":"ExecutionRequested","inputs":[{"name":"promptHash","type":"bytes32","indexed":true,"internalType":"bytes32"},{"name":"tier","type":"uint8","indexed":false,"internalType":"uint8"},{"name":"executionId","type":"uint256","indexed":true,"internalType":"uint256"},{"name":"timestamp","type":"uint256","indexed":false,"internalType":"uint256"},{"name":"cycle","type":"uint256","indexed":false,"internalType":"uint256"}],"anonymous":false},{"type":"event","name":"ExecutionRetry","inputs":[{"name":"executionId","type":"uint256","indexed":true,"internalType":"uint256"},{"name":"retryCount","type":"uint256","indexed":false,"internalType":"uint256"}],"anonymous":false},{"type":"event","name":"ExecutorAuthorized","inputs":[{"name":"executor","type":"address","indexed":true,"internalType":"address"},{"name":"authorized","type":"bool","indexed":false,"internalType":"bool"}],"anonymous":false},{"type":"event","name":"OwnershipTransferred","inputs":[{"name":"previousOwner","type":"address","indexed":true,"internalType":"address"},{"name":"newOwner","type":"address","indexed":true,"internalType":"address"}],"anonymous":false},{"type":"event","name":"TimeoutUpdated","inputs":[{"name":"newTimeout","type":"uint256","indexed":false,"internalType":"uint256"}],"anonymous":false},{"type":"error","name":"OwnableInvalidOwner","inputs":[{"name":"owner","type":"address","internalType":"address"}]},{"type":"error","name":"OwnableUnauthorizedAccount","inputs":[{"name":"account","type":"address","internalType":"address"}]},{"type":"error","name":"ReentrancyGuardReentrantCall","inputs":[]}],"bytecode":{"object":"0x608060405261012c600955348015610015575f5ffd5b5060405161267f38038061267f833981016040819052610034916101be565b338061005a57604051631e4fbdf760e01b81525f60048201526024015b60405180910390fd5b61006381610154565b5060017f9b779b17422d0df92223018b32b4d1fa46e071723d6817e2486d003becc55f00556001600160a01b0382166100de5760405162461bcd60e51b815260206004820152601c60248201527f4b6172614578656375746f723a20496e76616c696420736166657479000000006044820152606401610051565b6001600160a01b0383161561010957600180546001600160a01b0319166001600160a01b0385161790555b600280546001600160a01b0319166001600160a01b038481169190911790915581161561014c57600380546001600160a01b0319166001600160a01b0383161790555b5050506101fe565b5f80546001600160a01b038381166001600160a01b0319831681178455604051919092169283917f8be0079c531659141344cd1fd0a4f28419497f9722a3daafe3b4186f6b6457e09190a35050565b80516001600160a01b03811681146101b9575f5ffd5b919050565b5f5f5f606084860312156101d0575f5ffd5b6101d9846101a3565b92506101e7602085016101a3565b91506101f5604085016101a3565b90509250925092565b6124748061020b5f395ff3fe608060405234801561000f575f5ffd5b50600436106101f2575f3560e01c8063945b9d0f11610114578063cde4f2da116100a9578063e33f571b11610079578063e33f571b1461043f578063e9c8fa6414610448578063ea70b4af1461045d578063f2fde38b14610466578063f76c922914610479575f5ffd5b8063cde4f2da146103e4578063e0f0782b146103f7578063e326fbd41461040a578063e33edb0d1461042a575f5ffd5b8063a33568d7116100e4578063a33568d71461039f578063ae3380ce146102a8578063afe06867146103b2578063be3fc68f146103d1575f5ffd5b8063945b9d0f146103685780639af7b966146103705780639eebabbc14610383578063a17ecef314610396575f5ffd5b8063584b236c1161018a5780636e3f795a1161015a5780636e3f795a14610320578063715018a614610333578063873dc71d1461033b5780638da5cb5b14610358575f5ffd5b8063584b236c146102cf57806361d027b3146102d8578063679d86a7146102eb5780636dca4d441461030d575f5ffd5b806333cd9eef116101c557806333cd9eef14610265578063462bdfa61461027d57806346ebbdb0146102a857806357031f3a146102b0575f5ffd5b80630c340a24146101f657806322b52d6614610226578063254e589f1461023d57806328fd63e914610252575b5f5ffd5b600154610209906001600160a01b031681565b6040516001600160a01b0390911681526020015b60405180910390f35b61022f60095481565b60405190815260200161021d565b61025061024b366004611be9565b6104a0565b005b610250610260366004611be9565b61069e565b600a54600311155b604051901515815260200161021d565b61026d61028b366004611c1b565b6001600160a01b03165f9081526006602052604090205460ff1690565b61022f600381565b61022f6102be366004611be9565b5f9081526005602052604090205490565b61022f600a5481565b600354610209906001600160a01b031681565b61026d6102f9366004611c1b565b60066020525f908152604090205460ff1681565b61025061031b366004611c3b565b610740565b600254610209906001600160a01b031681565b6102506107ce565b604080515f8082524260208301529181019190915260600161021d565b5f546001600160a01b0316610209565b61022f600a81565b61025061037e366004611cc3565b6107e1565b610250610391366004611d3c565b610cb6565b61022f60075481565b6102506103ad366004611be9565b610eea565b61022f6103c0366004611be9565b60056020525f908152604090205481565b6102506103df366004611dc1565b610fd7565b61022f6103f2366004611e06565b611093565b610250610405366004611be9565b611446565b61041d610418366004611be9565b6115e5565b60405161021d9190611ee4565b610432611739565b60405161021d9190611ef6565b61022f600b5481565b61045061194e565b60405161021d9190611f93565b61022f60085481565b610250610474366004611c1b565b611a0a565b61048c610487366004611be9565b611a47565b60405161021d989796959493929190611fa5565b335f9081526006602052604090205460ff166104d75760405162461bcd60e51b81526004016104ce90612001565b60405180910390fd5b805f811180156104e957506007548111155b6105055760405162461bcd60e51b81526004016104ce90612038565b5f828152600460205260409020600381015460ff166105665760405162461bcd60e51b815260206004820152601e60248201527f4b6172614578656375746f723a204e6f7420796574206578656375746564000060448201526064016104ce565b6003810154610100900460ff16156105c05760405162461bcd60e51b815260206004820181905260248201527f4b6172614578656375746f723a20416c7265616479207375636365737366756c60448201526064016104ce565b600381600501541061061e5760405162461bcd60e51b815260206004820152602160248201527f4b6172614578656375746f723a204d61782072657472696573207265616368656044820152601960fa1b60648201526084016104ce565b60038101805461ff01600160b01b0319169055600581018054905f61064283612083565b909155505060088054905f61065683612083565b9190505550827faef383c88f73bd7eacd2cac8560fc983fb3d2611caef0dbbb5f2994077231f22826005015460405161069191815260200190565b60405180910390a2505050565b6106a6611b24565b603c81101580156106b95750610e108111155b6107055760405162461bcd60e51b815260206004820152601d60248201527f4b6172614578656375746f723a20496e76616c69642074696d656f757400000060448201526064016104ce565b60098190556040518181527f1a1cd30e223035d872019b55a16a88e0fad18aac07397d463628bf771cc10b949060200160405180910390a150565b610748611b24565b6001600160a01b0383161561077357600180546001600160a01b0319166001600160a01b0385161790555b6001600160a01b0382161561079e57600280546001600160a01b0319166001600160a01b0384161790555b6001600160a01b038116156107c957600380546001600160a01b0319166001600160a01b0383161790555b505050565b6107d6611b24565b6107df5f611b50565b565b6001546001600160a01b03161580159061080557506001546001600160a01b031633145b6108515760405162461bcd60e51b815260206004820152601b60248201527f4b6172614578656375746f723a204f6e6c7920676f7665726e6f72000000000060448201526064016104ce565b610859611b9f565b8281146108b45760405162461bcd60e51b815260206004820152602360248201527f4b6172614578656375746f723a204172726179206c656e677468206d69736d616044820152620e8c6d60eb1b60648201526084016104ce565b826109015760405162461bcd60e51b815260206004820152601960248201527f4b6172614578656375746f723a20456d7074792062617463680000000000000060448201526064016104ce565b600a8311156109525760405162461bcd60e51b815260206004820152601d60248201527f4b6172614578656375746f723a20426174636820746f6f206c6172676500000060448201526064016104ce565b5f8367ffffffffffffffff81111561096c5761096c61209b565b604051908082528060200260200182016040528015610995578160200160208202803683370190505b5090505f5b84811015610c59576002546001600160a01b03161580610a4d57506002546001600160a01b0316639f0b444d8585848181106109d8576109d86120af565b90506020020160208101906109ed91906120c3565b6040516001600160e01b031960e084901b16815260ff9091166004820152602401602060405180830381865afa158015610a29573d5f5f3e3d5ffd5b505050506040513d601f19601f82011682018060405250810190610a4d91906120dc565b610a995760405162461bcd60e51b815260206004820152601a60248201527f4b6172614578656375746f723a205469657220626c6f636b656400000000000060448201526064016104ce565b60078054905f610aa883612083565b9190505550600754828281518110610ac257610ac26120af565b602002602001018181525050604051806101000160405280878784818110610aec57610aec6120af565b905060200201358152602001858584818110610b0a57610b0a6120af565b9050602002016020810190610b1f91906120c3565b60ff9081168252426020808401919091525f6040808501829052606080860183905260808087018490528251808601845284815260a08089019190915260c0978801859052600754855260048087529484902089518155958901516001870180549190981660ff199091161790965591870151600285015586015160038401805492880151958801516001600160a01b0316620100000262010000600160b01b03199615156101000261ff00199315159390931661ffff19909416939093179190911794909416179092559183015190820190610bfc9082612185565b5060e0820151816005015590505060075460055f888885818110610c2257610c226120af565b9050602002013581526020019081526020015f208190555060085f815480929190610c4c90612083565b909155505060010161099a565b507f24c344b79107f136e70adcdf850556be7ba6c631bbb5926d030e533e94e89e678585858585604051610c91959493929190612240565b60405180910390a150610cb060015f51602061241f5f395f51905f5255565b50505050565b335f9081526006602052604090205460ff16610ce45760405162461bcd60e51b81526004016104ce90612001565b835f81118015610cf657506007548111155b610d125760405162461bcd60e51b81526004016104ce90612038565b610d1a611b9f565b5f85815260046020526040902060038101546201000090046001600160a01b03163314610d895760405162461bcd60e51b815260206004820181905260248201527f4b6172614578656375746f723a204e6f7420636c61696d656420627920796f7560448201526064016104ce565b600381015460ff1615610dae5760405162461bcd60e51b81526004016104ce906122ce565b6003810180548615156101000261ffff1990911617600117905560048101610dd7848683612305565b5060088054905f610de7836123bf565b91905055508415610dfb575f600a55610e90565b600a8054905f610e0a83612083565b909155505042600b556003600a5410610e9057857f6a1be9b4621b808ecf355df902a73fdf3a617b6efb22d4f5cb515e441ea974b7604051610e879060208082526021908201527f4369726375697420627265616b6572207468726573686f6c64207265616368656040820152601960fa1b606082015260800190565b60405180910390a25b857f93bed419cbc6f94adce247356538524c53eec6af9c90cf5de0df8069c40372f8868686604051610ec4939291906123d4565b60405180910390a250610ee360015f51602061241f5f395f51905f5255565b5050505050565b610ef2611b24565b805f81118015610f0457506007548111155b610f205760405162461bcd60e51b81526004016104ce90612038565b5f828152600460205260409020600381015460ff1615610f525760405162461bcd60e51b81526004016104ce906122ce565b60038101805461ffff1916600117905560088054905f610f71836123bf565b9190505550827f93bed419cbc6f94adce247356538524c53eec6af9c90cf5de0df8069c40372f85f6040516106919115158152604060208201819052601590820152742337b931b2903330b4b632b210313c9030b236b4b760591b606082015260800190565b610fdf611b24565b6001600160a01b0382166110355760405162461bcd60e51b815260206004820152601d60248201527f4b6172614578656375746f723a20496e76616c6964206164647265737300000060448201526064016104ce565b6001600160a01b0382165f81815260066020908152604091829020805460ff191685151590811790915591519182527f61e59429ef81596566b5f5d75085a25d4043be4dd2ba28cc98d8677718e6d0c3910160405180910390a25050565b6001545f906001600160a01b0316158015906110b957506001546001600160a01b031633145b6111055760405162461bcd60e51b815260206004820152601b60248201527f4b6172614578656375746f723a204f6e6c7920676f7665726e6f72000000000060448201526064016104ce565b61110d611b9f565b8261115a5760405162461bcd60e51b815260206004820152601a60248201527f4b6172614578656375746f723a20456d7074792070726f6d707400000000000060448201526064016104ce565b6002546001600160a01b031615806111da5750600254604051639f0b444d60e01b815260ff841660048201526001600160a01b0390911690639f0b444d90602401602060405180830381865afa1580156111b6573d5f5f3e3d5ffd5b505050506040513d601f19601f820116820180604052508101906111da91906120dc565b6112265760405162461bcd60e51b815260206004820152601a60248201527f4b6172614578656375746f723a205469657220626c6f636b656400000000000060448201526064016104ce565b5f83815260056020526040902054158061125d57505f838152600560209081526040808320548352600490915290206003015460ff165b6112bb5760405162461bcd60e51b815260206004820152602960248201527f4b6172614578656375746f723a204475706c69636174652070656e64696e672060448201526832bc32b1baba34b7b760b91b60648201526084016104ce565b60078054905f6112ca83612083565b909155505060075460408051610100808201835286825260ff8087166020808501918252428587019081525f606087018181526080880182815260a089018381528a518087018c5284815260c08b0190815260e08b018590528c85526004968790529a9093208951815595516001870180549190981660ff1990911617909655915160028501559051600384018054955192516001600160a01b0316620100000262010000600160b01b031993151590970261ff00199215159290921661ffff19909616959095171716939093179091559251919291908201906113ae9082612185565b5060e091909101516005918201555f8581526020919091526040812082905560088054916113db83612083565b90915550506040805160ff851681524260208201525f8183018190529151839187917f3a233655b15828c9557faaf6bdfadf6cdec47741bce4e4645faf38e5b830f94a9181900360600190a350905061144060015f51602061241f5f395f51905f5255565b92915050565b335f9081526006602052604090205460ff166114745760405162461bcd60e51b81526004016104ce90612001565b805f8111801561148657506007548111155b6114a25760405162461bcd60e51b81526004016104ce90612038565b5f828152600460205260409020600381015460ff16156114d45760405162461bcd60e51b81526004016104ce906122ce565b60038101546201000090046001600160a01b0316156115355760405162461bcd60e51b815260206004820152601d60248201527f4b6172614578656375746f723a20416c726561647920636c61696d656400000060448201526064016104ce565b6009548160020154611547919061240b565b4211156115965760405162461bcd60e51b815260206004820152601f60248201527f4b6172614578656375746f723a20457865637574696f6e20657870697265640060448201526064016104ce565b60038101805462010000600160b01b031916336201000081029190911790915560405184907f4c6df3f0c6a0e85fd1749ca686f8a60fd193bfdc6ab41b34a8244c4e792a76e9905f90a3505050565b60408051610100810182525f8082526020820181905291810182905260608082018390526080820183905260a0820183905260c082015260e08101919091525f828152600460208181526040928390208351610100808201865282548252600183015460ff9081169483019490945260028301549582019590955260038201548084161515606083015294850490921615156080830152620100009093046001600160a01b031660a0820152908201805491929160c0840191906116a8906120f7565b80601f01602080910402602001604051908101604052809291908181526020018280546116d4906120f7565b801561171f5780601f106116f65761010080835404028352916020019161171f565b820191905f5260205f20905b81548152906001019060200180831161170257829003601f168201915b505050505081526020016005820154815250509050919050565b60605f60085467ffffffffffffffff8111156117575761175761209b565b6040519080825280602002602001820160405280156117c357816020015b60408051610100810182525f808252602080830182905292820181905260608083018290526080830182905260a0830182905260c083015260e082015282525f199092019101816117755790505b5090505f60015b60075481111580156117dd575060085482105b15611946575f8181526004602052604090206003015460ff16611934575f818152600460208181526040928390208351610100808201865282548252600183015460ff9081169483019490945260028301549582019590955260038201548084161515606083015294850490921615156080830152620100009093046001600160a01b031660a0820152908201805491929160c08401919061187e906120f7565b80601f01602080910402602001604051908101604052809291908181526020018280546118aa906120f7565b80156118f55780601f106118cc576101008083540402835291602001916118f5565b820191905f5260205f20905b8154815290600101906020018083116118d857829003601f168201915b5050505050815260200160058201548152505083838151811061191a5761191a6120af565b6020026020010181905250818061193090612083565b9250505b8061193e81612083565b9150506117ca565b509092915050565b60605f60085467ffffffffffffffff81111561196c5761196c61209b565b604051908082528060200260200182016040528015611995578160200160208202803683370190505b5090505f60015b60075481111580156119af575060085482105b15611946575f8181526004602052604090206003015460ff166119f857808383815181106119df576119df6120af565b6020908102919091010152816119f481612083565b9250505b80611a0281612083565b91505061199c565b611a12611b24565b6001600160a01b038116611a3b57604051631e4fbdf760e01b81525f60048201526024016104ce565b611a4481611b50565b50565b600460208190525f918252604090912080546001820154600283015460038401549484018054939560ff9384169592948482169461010083041693620100009092046001600160a01b03169290611a9d906120f7565b80601f0160208091040260200160405190810160405280929190818152602001828054611ac9906120f7565b8015611b145780601f10611aeb57610100808354040283529160200191611b14565b820191905f5260205f20905b815481529060010190602001808311611af757829003601f168201915b5050505050908060050154905088565b5f546001600160a01b031633146107df5760405163118cdaa760e01b81523360048201526024016104ce565b5f80546001600160a01b038381166001600160a01b0319831681178455604051919092169283917f8be0079c531659141344cd1fd0a4f28419497f9722a3daafe3b4186f6b6457e09190a35050565b611ba7611bba565b60025f51602061241f5f395f51905f5255565b5f51602061241f5f395f51905f52546002036107df57604051633ee5aeb560e01b815260040160405180910390fd5b5f60208284031215611bf9575f5ffd5b5035919050565b80356001600160a01b0381168114611c16575f5ffd5b919050565b5f60208284031215611c2b575f5ffd5b611c3482611c00565b9392505050565b5f5f5f60608486031215611c4d575f5ffd5b611c5684611c00565b9250611c6460208501611c00565b9150611c7260408501611c00565b90509250925092565b5f5f83601f840112611c8b575f5ffd5b50813567ffffffffffffffff811115611ca2575f5ffd5b6020830191508360208260051b8501011115611cbc575f5ffd5b9250929050565b5f5f5f5f60408587031215611cd6575f5ffd5b843567ffffffffffffffff811115611cec575f5ffd5b611cf887828801611c7b565b909550935050602085013567ffffffffffffffff811115611d17575f5ffd5b611d2387828801611c7b565b95989497509550505050565b8015158114611a44575f5ffd5b5f5f5f5f60608587031215611d4f575f5ffd5b843593506020850135611d6181611d2f565b9250604085013567ffffffffffffffff811115611d7c575f5ffd5b8501601f81018713611d8c575f5ffd5b803567ffffffffffffffff811115611da2575f5ffd5b876020828401011115611db3575f5ffd5b949793965060200194505050565b5f5f60408385031215611dd2575f5ffd5b611ddb83611c00565b91506020830135611deb81611d2f565b809150509250929050565b803560ff81168114611c16575f5ffd5b5f5f60408385031215611e17575f5ffd5b82359150611e2760208401611df6565b90509250929050565b5f81518084528060208401602086015e5f602082860101526020601f19601f83011685010191505092915050565b8051825260ff6020820151166020830152604081015160408301526060810151151560608301525f6080820151611e99608085018215159052565b5060a0820151611eb460a08501826001600160a01b03169052565b5060c082015161010060c0850152611ed0610100850182611e30565b60e093840151949093019390935250919050565b602081525f611c346020830184611e5e565b5f602082016020835280845180835260408501915060408160051b8601019250602086015f5b82811015611f4d57603f19878603018452611f38858351611e5e565b94506020938401939190910190600101611f1c565b50929695505050505050565b5f8151808452602084019350602083015f5b82811015611f89578151865260209586019590910190600101611f6b565b5093949350505050565b602081525f611c346020830184611f59565b88815260ff881660208201528660408201528515156060820152841515608082015260018060a01b03841660a082015261010060c08201525f611fec610100830185611e30565b90508260e08301529998505050505050505050565b6020808252601c908201527f4b6172614578656375746f723a204e6f7420617574686f72697a656400000000604082015260600190565b6020808252601f908201527f4b6172614578656375746f723a20496e76616c696420657865637574696f6e00604082015260600190565b634e487b7160e01b5f52601160045260245ffd5b5f600182016120945761209461206f565b5060010190565b634e487b7160e01b5f52604160045260245ffd5b634e487b7160e01b5f52603260045260245ffd5b5f602082840312156120d3575f5ffd5b611c3482611df6565b5f602082840312156120ec575f5ffd5b8151611c3481611d2f565b600181811c9082168061210b57607f821691505b60208210810361212957634e487b7160e01b5f52602260045260245ffd5b50919050565b601f8211156107c957828211156107c957805f5260205f20601f840160051c602085101561215a57505f5b90810190601f840160051c035f5b8181101561217d575f83820155600101612168565b505050505050565b815167ffffffffffffffff81111561219f5761219f61209b565b6121b3816121ad84546120f7565b8461212f565b6020601f8211600181146121e5575f83156121ce5750848201515b5f19600385901b1c1916600184901b178455610ee3565b5f84815260208120601f198516915b8281101561221457878501518255602094850194600190920191016121f4565b508482101561223157868401515f19600387901b60f8161c191681555b50505050600190811b01905550565b606080825281018590525f6001600160fb1b0386111561225e575f5ffd5b8560051b80886080850137820182810360809081016020850152810185905285905f9060a0015b868210156122ae5760ff61229884611df6565b1681526020928301926001929092019101612285565b84810360408601526122c08187611f59565b9a9950505050505050505050565b6020808252601e908201527f4b6172614578656375746f723a20416c72656164792065786563757465640000604082015260600190565b67ffffffffffffffff83111561231d5761231d61209b565b6123318361232b83546120f7565b8361212f565b5f601f841160018114612362575f851561234b5750838201355b5f19600387901b1c1916600186901b178355610ee3565b5f83815260208120601f198716915b828110156123915786850135825560209485019460019092019101612371565b50868210156123ad575f1960f88860031b161c19848701351681555b505060018560011b0183555050505050565b5f816123cd576123cd61206f565b505f190190565b831515815260406020820152816040820152818360608301375f818301606090810191909152601f909201601f1916010192915050565b808201808211156114405761144061206f56fe9b779b17422d0df92223018b32b4d1fa46e071723d6817e2486d003becc55f00a2646970667358221220608fe097c0329b2cd3260d635155ca376e94f9f44210d71bb8052b448552f1d664736f6c63430008210033","linkReferences":{}},"methodIdentifiers":{"FAILURE_THRESHOLD()":"ae3380ce","FAILURE_WINDOW()":"945b9d0f","MAX_RETRIES()":"46ebbdb0","authorizedExecutors(address)":"679d86a7","claimExecution(uint256)":"e0f0782b","confirmExecution(uint256,bool,string)":"9eebabbc","consecutiveFailures()":"584b236c","executionCount()":"a17ecef3","executionTimeout()":"22b52d66","executions(uint256)":"f76c9229","forceFailExecution(uint256)":"a33568d7","getCycleInfo()":"873dc71d","getExecution(uint256)":"e326fbd4","getExecutionByPrompt(bytes32)":"57031f3a","getPendingExecutionIds()":"e9c8fa64","getPendingExecutions()":"e33edb0d","governor()":"0c340a24","isAuthorizedExecutor(address)":"462bdfa6","lastFailureTime()":"e33f571b","owner()":"8da5cb5b","pendingCount()":"ea70b4af","promptToExecution(bytes32)":"afe06867","receiveBatchExecution(bytes32[],uint8[])":"9af7b966","receiveExecution(bytes32,uint8)":"cde4f2da","renounceOwnership()":"715018a6","requestRetry(uint256)":"254e589f","safety()":"6e3f795a","setExecutionTimeout(uint256)":"28fd63e9","setExecutorAuthorization(address,bool)":"be3fc68f","shouldTriggerCircuitBreaker()":"33cd9eef","transferOwnership(address)":"f2fde38b","treasury()":"61d027b3","updateContracts(address,address,address)":"6dca4d44"},"id":1}