{"abi":[{"type":"constructor","inputs":[{"name":"_karaToken","type":"address","internalType":"address"},{"name":"_safety","type":"address","internalType":"address"},{"name":"_executor","type":"address","internalType":"address"}],"stateMutability":"nonpayable"},{"type":"function","name":"AGENT_REGISTRATION_STAKE","inputs":[],"outputs":[{"name":"","type":"uint256","internalType":"uint256"}],"stateMutability":"view"},{"type":"function","name":"BASIS_POINTS","inputs":[],"outputs":[{"name":"","type":"uint256","internalType":"uint256"}],"stateMutability":"view"},{"type":"function","name":"CYCLE_DURATION","inputs":[],"outputs":[{"name":"","type":"uint256","internalType":"uint256"}],"stateMutability":"view"},{"type":"function","name":"DELEGATE_BONUS","inputs":[],"outputs":[{"name":"","type":"uint256","internalType":"uint256"}],"stateMutability":"view"},{"type":"function","name":"MAX_BETA_AGENTS","inputs":[],"outputs":[{"name":"","type":"uint256","internalType":"uint256"}],"stateMutability":"view"},{"type":"function","name":"MIN_STAKE_TO_VOTE","inputs":[],"outputs":[{"name":"","type":"uint256","internalType":"uint256"}],"stateMutability":"view"},{"type":"function","name":"advanceCycle","inputs":[],"outputs":[],"stateMutability":"nonpayable"},{"type":"function","name":"agents","inputs":[{"name":"","type":"address","internalType":"address"}],"outputs":[{"name":"agentAddress","type":"address","internalType":"address"},{"name":"registrationTime","type":"uint256","internalType":"uint256"},{"name":"stakedAmount","type":"uint256","internalType":"uint256"},{"name":"reputationScore","type":"uint256","internalType":"uint256"},{"name":"metadataURI","type":"string","internalType":"string"},{"name":"isActive","type":"bool","internalType":"bool"}],"stateMutability":"view"},{"type":"function","name":"betaMode","inputs":[],"outputs":[{"name":"","type":"bool","internalType":"bool"}],"stateMutability":"view"},{"type":"function","name":"castVote","inputs":[{"name":"proposalId","type":"uint256","internalType":"uint256"},{"name":"support","type":"bool","internalType":"bool"}],"outputs":[],"stateMutability":"nonpayable"},{"type":"function","name":"currentAgentCount","inputs":[],"outputs":[{"name":"","type":"uint256","internalType":"uint256"}],"stateMutability":"view"},{"type":"function","name":"currentCycle","inputs":[],"outputs":[{"name":"","type":"uint256","internalType":"uint256"}],"stateMutability":"view"},{"type":"function","name":"cycleProposals","inputs":[{"name":"","type":"uint256","internalType":"uint256"},{"name":"","type":"uint256","internalType":"uint256"}],"outputs":[{"name":"","type":"uint256","internalType":"uint256"}],"stateMutability":"view"},{"type":"function","name":"cycleStartTime","inputs":[],"outputs":[{"name":"","type":"uint256","internalType":"uint256"}],"stateMutability":"view"},{"type":"function","name":"delegate","inputs":[{"name":"agent","type":"address","internalType":"address"}],"outputs":[],"stateMutability":"nonpayable"},{"type":"function","name":"deregisterAgent","inputs":[],"outputs":[],"stateMutability":"nonpayable"},{"type":"function","name":"disableBetaMode","inputs":[],"outputs":[],"stateMutability":"nonpayable"},{"type":"function","name":"executeWinningProposal","inputs":[{"name":"proposalId","type":"uint256","internalType":"uint256"}],"outputs":[],"stateMutability":"nonpayable"},{"type":"function","name":"executor","inputs":[],"outputs":[{"name":"","type":"address","internalType":"contract IKaraExecutor"}],"stateMutability":"view"},{"type":"function","name":"getAgent","inputs":[{"name":"agent","type":"address","internalType":"address"}],"outputs":[{"name":"","type":"tuple","internalType":"struct KaraGovernor.Agent","components":[{"name":"agentAddress","type":"address","internalType":"address"},{"name":"registrationTime","type":"uint256","internalType":"uint256"},{"name":"stakedAmount","type":"uint256","internalType":"uint256"},{"name":"reputationScore","type":"uint256","internalType":"uint256"},{"name":"metadataURI","type":"string","internalType":"string"},{"name":"isActive","type":"bool","internalType":"bool"}]}],"stateMutability":"view"},{"type":"function","name":"getCurrentCycle","inputs":[],"outputs":[{"name":"cycle","type":"uint256","internalType":"uint256"},{"name":"startTime","type":"uint256","internalType":"uint256"},{"name":"timeRemaining","type":"uint256","internalType":"uint256"}],"stateMutability":"view"},{"type":"function","name":"getCycleProposals","inputs":[{"name":"cycle","type":"uint256","internalType":"uint256"}],"outputs":[{"name":"","type":"uint256[]","internalType":"uint256[]"}],"stateMutability":"view"},{"type":"function","name":"getProposal","inputs":[{"name":"proposalId","type":"uint256","internalType":"uint256"}],"outputs":[{"name":"","type":"tuple","internalType":"struct KaraGovernor.Proposal","components":[{"name":"promptHash","type":"bytes32","internalType":"bytes32"},{"name":"tier","type":"uint8","internalType":"enum KaraGovernor.Tier"},{"name":"startTime","type":"uint256","internalType":"uint256"},{"name":"endTime","type":"uint256","internalType":"uint256"},{"name":"forVotes","type":"uint256","internalType":"uint256"},{"name":"againstVotes","type":"uint256","internalType":"uint256"},{"name":"executed","type":"bool","internalType":"bool"},{"name":"proposer","type":"address","internalType":"address"},{"name":"vetoed","type":"bool","internalType":"bool"}]}],"stateMutability":"view"},{"type":"function","name":"getStaker","inputs":[{"name":"staker","type":"address","internalType":"address"}],"outputs":[{"name":"","type":"tuple","internalType":"struct KaraGovernor.Staker","components":[{"name":"stakedAmount","type":"uint256","internalType":"uint256"},{"name":"lockEndTime","type":"uint256","internalType":"uint256"},{"name":"delegatedTo","type":"address","internalType":"address"},{"name":"timeMultiplier","type":"uint256","internalType":"uint256"}]}],"stateMutability":"view"},{"type":"function","name":"getTierConfig","inputs":[{"name":"tier","type":"uint8","internalType":"enum KaraGovernor.Tier"}],"outputs":[{"name":"","type":"tuple","internalType":"struct KaraGovernor.TierConfig","components":[{"name":"votingPeriod","type":"uint256","internalType":"uint256"},{"name":"threshold","type":"uint256","internalType":"uint256"},{"name":"minStake","type":"uint256","internalType":"uint256"},{"name":"active","type":"bool","internalType":"bool"}]}],"stateMutability":"view"},{"type":"function","name":"getVotingPower","inputs":[{"name":"voter","type":"address","internalType":"address"}],"outputs":[{"name":"","type":"uint256","internalType":"uint256"}],"stateMutability":"view"},{"type":"function","name":"hasVoted","inputs":[{"name":"","type":"uint256","internalType":"uint256"},{"name":"","type":"address","internalType":"address"}],"outputs":[{"name":"","type":"bool","internalType":"bool"}],"stateMutability":"view"},{"type":"function","name":"isWhitelistedAgent","inputs":[{"name":"","type":"address","internalType":"address"}],"outputs":[{"name":"","type":"bool","internalType":"bool"}],"stateMutability":"view"},{"type":"function","name":"karaToken","inputs":[],"outputs":[{"name":"","type":"address","internalType":"contract IKaraToken"}],"stateMutability":"view"},{"type":"function","name":"owner","inputs":[],"outputs":[{"name":"","type":"address","internalType":"address"}],"stateMutability":"view"},{"type":"function","name":"proposalCount","inputs":[],"outputs":[{"name":"","type":"uint256","internalType":"uint256"}],"stateMutability":"view"},{"type":"function","name":"proposals","inputs":[{"name":"","type":"uint256","internalType":"uint256"}],"outputs":[{"name":"promptHash","type":"bytes32","internalType":"bytes32"},{"name":"tier","type":"uint8","internalType":"enum KaraGovernor.Tier"},{"name":"startTime","type":"uint256","internalType":"uint256"},{"name":"endTime","type":"uint256","internalType":"uint256"},{"name":"forVotes","type":"uint256","internalType":"uint256"},{"name":"againstVotes","type":"uint256","internalType":"uint256"},{"name":"executed","type":"bool","internalType":"bool"},{"name":"proposer","type":"address","internalType":"address"},{"name":"vetoed","type":"bool","internalType":"bool"}],"stateMutability":"view"},{"type":"function","name":"registerAgent","inputs":[{"name":"metadataURI","type":"string","internalType":"string"}],"outputs":[],"stateMutability":"nonpayable"},{"type":"function","name":"removeWhitelist","inputs":[{"name":"agent","type":"address","internalType":"address"}],"outputs":[],"stateMutability":"nonpayable"},{"type":"function","name":"renounceOwnership","inputs":[],"outputs":[],"stateMutability":"nonpayable"},{"type":"function","name":"safety","inputs":[],"outputs":[{"name":"","type":"address","internalType":"contract IKaraSafety"}],"stateMutability":"view"},{"type":"function","name":"setTreasury","inputs":[{"name":"_treasury","type":"address","internalType":"address"}],"outputs":[],"stateMutability":"nonpayable"},{"type":"function","name":"stakers","inputs":[{"name":"","type":"address","internalType":"address"}],"outputs":[{"name":"stakedAmount","type":"uint256","internalType":"uint256"},{"name":"lockEndTime","type":"uint256","internalType":"uint256"},{"name":"delegatedTo","type":"address","internalType":"address"},{"name":"timeMultiplier","type":"uint256","internalType":"uint256"}],"stateMutability":"view"},{"type":"function","name":"submitProposal","inputs":[{"name":"promptHash","type":"bytes32","internalType":"bytes32"},{"name":"tier","type":"uint8","internalType":"enum KaraGovernor.Tier"}],"outputs":[{"name":"","type":"uint256","internalType":"uint256"}],"stateMutability":"nonpayable"},{"type":"function","name":"tierConfigs","inputs":[{"name":"","type":"uint8","internalType":"enum KaraGovernor.Tier"}],"outputs":[{"name":"votingPeriod","type":"uint256","internalType":"uint256"},{"name":"threshold","type":"uint256","internalType":"uint256"},{"name":"minStake","type":"uint256","internalType":"uint256"},{"name":"active","type":"bool","internalType":"bool"}],"stateMutability":"view"},{"type":"function","name":"transferOwnership","inputs":[{"name":"newOwner","type":"address","internalType":"address"}],"outputs":[],"stateMutability":"nonpayable"},{"type":"function","name":"treasury","inputs":[],"outputs":[{"name":"","type":"address","internalType":"contract IKaraTreasury"}],"stateMutability":"view"},{"type":"function","name":"updateAgentReputation","inputs":[{"name":"agent","type":"address","internalType":"address"},{"name":"newScore","type":"uint256","internalType":"uint256"}],"outputs":[],"stateMutability":"nonpayable"},{"type":"function","name":"updateContracts","inputs":[{"name":"_karaToken","type":"address","internalType":"address"},{"name":"_safety","type":"address","internalType":"address"},{"name":"_executor","type":"address","internalType":"address"}],"outputs":[],"stateMutability":"nonpayable"},{"type":"function","name":"updateStakerInfo","inputs":[{"name":"staker","type":"address","internalType":"address"},{"name":"amount","type":"uint256","internalType":"uint256"},{"name":"lockEndTime","type":"uint256","internalType":"uint256"},{"name":"timeMultiplier","type":"uint256","internalType":"uint256"}],"outputs":[],"stateMutability":"nonpayable"},{"type":"function","name":"updateTierConfig","inputs":[{"name":"tier","type":"uint8","internalType":"enum KaraGovernor.Tier"},{"name":"votingPeriod","type":"uint256","internalType":"uint256"},{"name":"threshold","type":"uint256","internalType":"uint256"},{"name":"minStake","type":"uint256","internalType":"uint256"},{"name":"active","type":"bool","internalType":"bool"}],"outputs":[],"stateMutability":"nonpayable"},{"type":"function","name":"vetoProposal","inputs":[{"name":"proposalId","type":"uint256","internalType":"uint256"}],"outputs":[],"stateMutability":"nonpayable"},{"type":"function","name":"whitelistAgent","inputs":[{"name":"agent","type":"address","internalType":"address"}],"outputs":[],"stateMutability":"nonpayable"},{"type":"event","name":"AgentDeregistered","inputs":[{"name":"agent","type":"address","indexed":true,"internalType":"address"}],"anonymous":false},{"type":"event","name":"AgentRegistered","inputs":[{"name":"agent","type":"address","indexed":true,"internalType":"address"},{"name":"metadataURI","type":"string","indexed":false,"internalType":"string"},{"name":"stakedAmount","type":"uint256","indexed":false,"internalType":"uint256"}],"anonymous":false},{"type":"event","name":"CycleAdvanced","inputs":[{"name":"newCycle","type":"uint256","indexed":true,"internalType":"uint256"},{"name":"timestamp","type":"uint256","indexed":false,"internalType":"uint256"}],"anonymous":false},{"type":"event","name":"DelegationChanged","inputs":[{"name":"delegator","type":"address","indexed":true,"internalType":"address"},{"name":"previousDelegate","type":"address","indexed":true,"internalType":"address"},{"name":"newDelegate","type":"address","indexed":true,"internalType":"address"}],"anonymous":false},{"type":"event","name":"OwnershipTransferred","inputs":[{"name":"previousOwner","type":"address","indexed":true,"internalType":"address"},{"name":"newOwner","type":"address","indexed":true,"internalType":"address"}],"anonymous":false},{"type":"event","name":"ProposalExecuted","inputs":[{"name":"proposalId","type":"uint256","indexed":true,"internalType":"uint256"},{"name":"promptHash","type":"bytes32","indexed":false,"internalType":"bytes32"},{"name":"forVotes","type":"uint256","indexed":false,"internalType":"uint256"},{"name":"againstVotes","type":"uint256","indexed":false,"internalType":"uint256"}],"anonymous":false},{"type":"event","name":"ProposalSubmitted","inputs":[{"name":"proposalId","type":"uint256","indexed":true,"internalType":"uint256"},{"name":"promptHash","type":"bytes32","indexed":true,"internalType":"bytes32"},{"name":"tier","type":"uint8","indexed":false,"internalType":"enum KaraGovernor.Tier"},{"name":"proposer","type":"address","indexed":true,"internalType":"address"},{"name":"cycle","type":"uint256","indexed":false,"internalType":"uint256"}],"anonymous":false},{"type":"event","name":"ProposalVetoed","inputs":[{"name":"proposalId","type":"uint256","indexed":true,"internalType":"uint256"}],"anonymous":false},{"type":"event","name":"TierConfigUpdated","inputs":[{"name":"tier","type":"uint8","indexed":false,"internalType":"enum KaraGovernor.Tier"},{"name":"votingPeriod","type":"uint256","indexed":false,"internalType":"uint256"},{"name":"threshold","type":"uint256","indexed":false,"internalType":"uint256"},{"name":"minStake","type":"uint256","indexed":false,"internalType":"uint256"}],"anonymous":false},{"type":"event","name":"VoteCast","inputs":[{"name":"proposalId","type":"uint256","indexed":true,"internalType":"uint256"},{"name":"voter","type":"address","indexed":true,"internalType":"address"},{"name":"support","type":"bool","indexed":false,"internalType":"bool"},{"name":"weight","type":"uint256","indexed":false,"internalType":"uint256"}],"anonymous":false},{"type":"error","name":"OwnableInvalidOwner","inputs":[{"name":"owner","type":"address","internalType":"address"}]},{"type":"error","name":"OwnableUnauthorizedAccount","inputs":[{"name":"account","type":"address","internalType":"address"}]},{"type":"error","name":"ReentrancyGuardReentrantCall","inputs":[]}],"bytecode":{"object":"0x60806040526010805460ff1916600117905534801561001c575f5ffd5b5060405161367f38038061367f83398101604081905261003b916101c5565b338061006157604051631e4fbdf760e01b81525f60048201526024015b60405180910390fd5b61006a8161015b565b5060017f9b779b17422d0df92223018b32b4d1fa46e071723d6817e2486d003becc55f00556001600160a01b0383166100e55760405162461bcd60e51b815260206004820152601b60248201527f4b617261476f7665726e6f723a20496e76616c696420746f6b656e00000000006044820152606401610058565b600180546001600160a01b0319166001600160a01b038581169190911790915582161561012857600280546001600160a01b0319166001600160a01b0384161790555b6001600160a01b0381161561015357600380546001600160a01b0319166001600160a01b0383161790555b505050610205565b5f80546001600160a01b038381166001600160a01b0319831681178455604051919092169283917f8be0079c531659141344cd1fd0a4f28419497f9722a3daafe3b4186f6b6457e09190a35050565b80516001600160a01b03811681146101c0575f5ffd5b919050565b5f5f5f606084860312156101d7575f5ffd5b6101e0846101aa565b92506101ee602085016101aa565b91506101fc604085016101aa565b90509250925092565b61346d806102125f395ff3fe608060405234801561000f575f5ffd5b5060043610610297575f3560e01c8063a23c44b111610161578063c7f758a8116100ca578063f0f4426011610084578063f0f442601461074b578063f2fde38b1461075e578063f82190fa14610771578063fb3551ff14610779578063fcd3674714610799578063fd66091e146107ac575f5ffd5b8063c7f758a8146106de578063c8b2e9e2146106fe578063cc4a828314610711578063cd421fbf14610731578063da35c66414610739578063e1f1c4a714610742575f5ffd5b8063bab2f5521161011b578063bab2f55214610631578063bb4d44361461063a578063be26ed7f1461064d578063c022c52314610670578063c34c08e5146106b8578063c7f31138146106cb575f5ffd5b8063a23c44b11461059c578063a7253704146105eb578063b5cae076146105f3578063b6ff26cd14610606578063b776c8c91461060e578063b8e69b4e1461061e575f5ffd5b806361d027b31161020357806380e5694d116101bd57806380e5694d146104825780638abe2f26146104a45780638da5cb5b146104b15780639168ae72146104c15780639259b274146105305780639da9db2a14610543575f5ffd5b806361d027b3146104035780636dca4d441461042e5780636e3f795a146104415780636f65108c14610454578063715018a61461046757806378c8cda71461046f575f5ffd5b80634a3002fb116102545780634a3002fb146103b15780634b961e76146103b957806355eeedd2146103c25780635b1f95a8146103ca5780635c19a95c146103dd5780635c713b9d146103f0575f5ffd5b8063013cf08b1461029b57806315373e3d146103245780632b925fd0146103395780632d2a958514610358578063335e536c1461036b5780634385963214610374575b5f5ffd5b6103066102a9366004612c4a565b600660208190525f91825260409091208054600182015460028301546003840154600485015460058601549590960154939560ff9384169592949193909291808216916001600160a01b0361010083041691600160a81b90041689565b60405161031b99989796959493929190612c95565b60405180910390f35b610337610332366004612cfb565b6107d1565b005b61034a690a968163f0a57b40000081565b60405190815260200161031b565b610337610366366004612d29565b610aa1565b61034a600c5481565b6103a1610382366004612db2565b600760209081525f928352604080842090915290825290205460ff1681565b604051901515815260200161031b565b61034a607881565b61034a600f5481565b61034a600a81565b6103376103d8366004612ddc565b610e72565b6103376103eb366004612ddc565b610ef3565b61034a6103fe366004612e03565b610fcf565b600454610416906001600160a01b031681565b6040516001600160a01b03909116815260200161031b565b61033761043c366004612e24565b6114c4565b600254610416906001600160a01b031681565b610337610462366004612c4a565b611553565b61033761160d565b61033761047d366004612ddc565b611620565b6103a1610490366004612ddc565b600a6020525f908152604090205460ff1681565b6010546103a19060ff1681565b5f546001600160a01b0316610416565b6105016104cf366004612ddc565b60096020525f90815260409020805460018201546002830154600390930154919290916001600160a01b039091169084565b60405161031b949392919093845260208401929092526001600160a01b03166040830152606082015260800190565b61033761053e366004612e64565b611648565b61057a610551366004612e8c565b60056020525f908152604090208054600182015460028301546003909301549192909160ff1684565b604080519485526020850193909352918301521515606082015260800161031b565b6105af6105aa366004612ddc565b611774565b60405161031b919081518152602080830151908201526040808301516001600160a01b0316908201526060918201519181019190915260800190565b6103376117f6565b610337610601366004612ea5565b61199c565b610337611a15565b61034a683635c9adc5dea0000081565b61033761062c366004612edb565b611a29565b61034a600b5481565b61034a610648366004612ddc565b611b51565b610655611d33565b6040805193845260208401929092529082015260600161031b565b61068361067e366004612e8c565b611d75565b60405161031b919081518152602080830151908201526040808301519082015260609182015115159181019190915260800190565b600354610416906001600160a01b031681565b61034a6106d9366004612f2b565b611e0e565b6106f16106ec366004612c4a565b611e39565b60405161031b9190612f4b565b61033761070c366004612c4a565b611f35565b61072461071f366004612c4a565b612441565b60405161031b9190612fc3565b61034a601e81565b61034a600d5481565b61034a61271081565b610337610759366004612ddc565b6124a0565b61033761076c366004612ddc565b6127f2565b61033761282f565b61078c610787366004612ddc565b61288a565b60405161031b9190613033565b600154610416906001600160a01b031681565b6107bf6107ba366004612ddc565b6129c2565b60405161031b96959493929190613096565b815f811180156107e35750600d548111155b6108085760405162461bcd60e51b81526004016107ff906130dd565b60405180910390fd5b610810612a8b565b5f838152600660205260409020600381015442106108705760405162461bcd60e51b815260206004820152601a60248201527f4b617261476f7665726e6f723a20566f74696e6720656e64656400000000000060448201526064016107ff565b600681015460ff16156108c55760405162461bcd60e51b815260206004820152601e60248201527f4b617261476f7665726e6f723a20416c7265616479206578656375746564000060448201526064016107ff565b6006810154600160a81b900460ff16156109215760405162461bcd60e51b815260206004820152601d60248201527f4b617261476f7665726e6f723a2050726f706f73616c207665746f656400000060448201526064016107ff565b5f84815260076020908152604080832033845290915290205460ff161561098a5760405162461bcd60e51b815260206004820152601b60248201527f4b617261476f7665726e6f723a20416c726561647920766f746564000000000060448201526064016107ff565b5f61099433611b51565b90505f81116109e55760405162461bcd60e51b815260206004820152601d60248201527f4b617261476f7665726e6f723a204e6f20766f74696e6720706f77657200000060448201526064016107ff565b5f8581526007602090815260408083203384529091529020805460ff191660011790558315610a2c5780826004015f828254610a219190613128565b90915550610a459050565b80826005015f828254610a3f9190613128565b90915550505b60408051851515815260208101839052339187917fcbdf6214089cba887ecbf35a0b6a734589959c9763342c756bb2a80ca2bc9f6e910160405180910390a35050610a9c60015f5160206134185f395f51905f5255565b505050565b610aa9612a8b565b335f9081526008602052604090206005015460ff1615610b0b5760405162461bcd60e51b815260206004820181905260248201527f4b617261476f7665726e6f723a20416c7265616479207265676973746572656460448201526064016107ff565b80610b585760405162461bcd60e51b815260206004820152601c60248201527f4b617261476f7665726e6f723a20456d707479206d657461646174610000000060448201526064016107ff565b60105460ff1615610c3157335f908152600a602052604090205460ff16610bd05760405162461bcd60e51b815260206004820152602660248201527f4b617261476f7665726e6f723a204e6f742077686974656c697374656420666f60448201526572206265746160d01b60648201526084016107ff565b600a600f5410610c315760405162461bcd60e51b815260206004820152602660248201527f4b617261476f7665726e6f723a2042657461206167656e74206c696d69742072604482015265195858da195960d21b60648201526084016107ff565b6001546040516323b872dd60e01b8152336004820152306024820152690a968163f0a57b40000060448201526001600160a01b03909116906323b872dd906064016020604051808303815f875af1158015610c8e573d5f5f3e3d5ffd5b505050506040513d601f19601f82011682018060405250810190610cb29190613141565b610d0a5760405162461bcd60e51b815260206004820152602360248201527f4b617261476f7665726e6f723a205374616b65207472616e73666572206661696044820152621b195960ea1b60648201526084016107ff565b6040518060c00160405280336001600160a01b03168152602001428152602001690a968163f0a57b40000081526020016032815260200183838080601f0160208091040260200160405190810160405280939291908181526020018383808284375f92018290525093855250506001602093840181905233835260088452604092839020855181546001600160a01b0319166001600160a01b0390911617815593850151908401555082015160028201556060820151600382015560808201516004820190610dd990826131fe565b5060a091909101516005909101805460ff1916911515919091179055600f8054905f610e04836132bd565b9190505550336001600160a01b03167f023c5efe572c42192271951adb0e77f97d7fc84bc761d026189ac086173468248383690a968163f0a57b400000604051610e50939291906132d5565b60405180910390a2610e6e60015f5160206134185f395f51905f5255565b5050565b610e7a612aa6565b6001600160a01b038116610ed05760405162461bcd60e51b815260206004820152601d60248201527f4b617261476f7665726e6f723a20496e76616c6964206164647265737300000060448201526064016107ff565b6001600160a01b03165f908152600a60205260409020805460ff19166001179055565b6001600160a01b0381161580610f2357506001600160a01b0381165f9081526008602052604090206005015460ff165b610f6f5760405162461bcd60e51b815260206004820152601b60248201527f4b617261476f7665726e6f723a20496e76616c6964206167656e74000000000060448201526064016107ff565b335f8181526009602052604080822060020180546001600160a01b038681166001600160a01b0319831681179093559251921693909284927fdc66b2a0c2e9f8ef38f442117eb813788791a117772b1a45985da7988e8c485c9190a45050565b335f9081526008602052604081206005015460ff1661103b5760405162461bcd60e51b815260206004820152602260248201527f4b617261476f7665726e6f723a204e6f742072656769737465726564206167656044820152611b9d60f21b60648201526084016107ff565b8160055f82600381111561105157611051612c61565b600381111561106257611062612c61565b815260208101919091526040015f206003015460ff166110c45760405162461bcd60e51b815260206004820152601d60248201527f4b617261476f7665726e6f723a2054696572206e6f742061637469766500000060448201526064016107ff565b6002546001600160a01b0316158061115c57506002546001600160a01b031663bc61e7338260038111156110fa576110fa612c61565b6040516001600160e01b031960e084901b16815260ff9091166004820152602401602060405180830381865afa158015611136573d5f5f3e3d5ffd5b505050506040513d601f19601f8201168201806040525081019061115a9190613141565b155b6111a85760405162461bcd60e51b815260206004820152601960248201527f4b617261476f7665726e6f723a2054696572207061757365640000000000000060448201526064016107ff565b6111b0612a8b565b836111fd5760405162461bcd60e51b815260206004820152601f60248201527f4b617261476f7665726e6f723a20456d7074792070726f6d707420686173680060448201526064016107ff565b60055f84600381111561121257611212612c61565b600381111561122357611223612c61565b815260208082019290925260409081015f908120600201543382526009909352205410156112935760405162461bcd60e51b815260206004820181905260248201527f4b617261476f7665726e6f723a20496e73756666696369656e74207374616b6560448201526064016107ff565b61129b612ad2565b600d8054905f6112aa836132bd565b9091555050600d545f6005818660038111156112c8576112c8612c61565b60038111156112d9576112d9612c61565b815260208082019290925260409081015f2081516080810183528154815260018201548185015260028201548184015260039182015460ff16151560608201528251610120810190935289835293509091820190879081111561133e5761133e612c61565b8152602001428152602001825f0151426113589190613128565b81525f602080830182905260408084018390526060840183905233608085015260a090930182905285825260068152919020825181559082015160018281018054909160ff19909116908360038111156113b4576113b4612c61565b02179055506040828101516002830155606083015160038301556080830151600483015560a0830151600583015560c08301516006909201805460e0850151610100958601516001600160a81b0319909216941515610100600160a81b031916949094176001600160a01b039094169094029290921760ff60a81b1916600160a81b93151593909302929092179055600b80545f908152600e602090815283822080546001810182559083529120018490555490513391889185917fc9d34ed2b5eb678e9afe5186c3cdf2f262fcd0553cba50821d93f4dd67295f269161149c918b9161330c565b60405180910390a45091506114bd60015f5160206134185f395f51905f5255565b5092915050565b6114cc612aa6565b6001600160a01b038316156114f757600180546001600160a01b0319166001600160a01b0385161790555b6001600160a01b0382161561152257600280546001600160a01b0319166001600160a01b0384161790555b6001600160a01b03811615610a9c57600380546001600160a01b0383166001600160a01b0319909116179055505050565b805f811180156115655750600d548111155b6115815760405162461bcd60e51b81526004016107ff906130dd565b6002546001600160a01b03163314806115a357505f546001600160a01b031633145b6115bf5760405162461bcd60e51b81526004016107ff90613327565b5f828152600660208190526040808320909101805460ff60a81b1916600160a81b1790555183917fde0cea2a3a0097cc3d981d40c375407760e85bc9c5e69aea449ac3885f8615c691a25050565b611615612aa6565b61161e5f612b68565b565b611628612aa6565b6001600160a01b03165f908152600a60205260409020805460ff19169055565b6002546001600160a01b031633148061166b57506003546001600160a01b031633145b8061167f57505f546001600160a01b031633145b61169b5760405162461bcd60e51b81526004016107ff90613327565b60648111156116ec5760405162461bcd60e51b815260206004820152601b60248201527f4b617261476f7665726e6f723a20496e76616c69642073636f7265000000000060448201526064016107ff565b6001600160a01b0382165f9081526008602052604090206005015460ff166117565760405162461bcd60e51b815260206004820152601e60248201527f4b617261476f7665726e6f723a204167656e74206e6f7420616374697665000060448201526064016107ff565b6001600160a01b039091165f90815260086020526040902060030155565b6117a460405180608001604052805f81526020015f81526020015f6001600160a01b031681526020015f81525090565b506001600160a01b039081165f90815260096020908152604091829020825160808101845281548152600182015492810192909252600281015490931691810191909152600390910154606082015290565b6117fe612a8b565b335f9081526008602052604090206005015460ff1661185f5760405162461bcd60e51b815260206004820152601c60248201527f4b617261476f7665726e6f723a204e6f7420726567697374657265640000000060448201526064016107ff565b335f90815260086020526040812060028101546005909101805460ff19169055600f8054919261188e8361335e565b909155505060015460405163a9059cbb60e01b8152336004820152602481018390526001600160a01b039091169063a9059cbb906044016020604051808303815f875af11580156118e1573d5f5f3e3d5ffd5b505050506040513d601f19601f820116820180604052508101906119059190613141565b61195b5760405162461bcd60e51b815260206004820152602160248201527f4b617261476f7665726e6f723a205374616b652072657475726e206661696c656044820152601960fa1b60648201526084016107ff565b60405133907fcd7d9ced6282be80b75fa747c535d58e02a973ac92b9707cb663514caa62fb8d905f90a25061161e60015f5160206134185f395f51905f5255565b6004546001600160a01b03163314806119be57505f546001600160a01b031633145b806119d357506001546001600160a01b031633145b6119ef5760405162461bcd60e51b81526004016107ff90613327565b6001600160a01b039093165f908152600960205260409020918255600182015560030155565b611a1d612aa6565b6010805460ff19169055565b611a31612aa6565b612710831115611a835760405162461bcd60e51b815260206004820152601f60248201527f4b617261476f7665726e6f723a20496e76616c6964207468726573686f6c640060448201526064016107ff565b604051806080016040528085815260200184815260200183815260200182151581525060055f876003811115611abb57611abb612c61565b6003811115611acc57611acc612c61565b815260208082019290925260409081015f20835181559183015160018301558281015160028301556060909201516003909101805460ff1916911515919091179055517fa1248bbcda0824e3a0b3b0105acf26b54b0ba09e8a30f6cbe48bab96a325ec8690611b42908790879087908790613373565b60405180910390a15050505050565b6001600160a01b038082165f90815260096020908152604080832081516080810183528154808252600183015494820194909452600282015490951691850191909152600301546060840152909190683635c9adc5dea000001115611bb857505f92915050565b5f611bc5825f0151612bb7565b60608301519091505f819003611bd9575060645b5f6064611be6838561339c565b611bf091906133c7565b60408501519091506001600160a01b031615611d2a576040808501516001600160a01b039081165f90815260086020908152838220845160c0810186528154909416845260018101549184019190915260028101549383019390935260038301546060830152600483018054919391608084019190611c6e90613170565b80601f0160208091040260200160405190810160405280929190818152602001828054611c9a90613170565b8015611ce55780601f10611cbc57610100808354040283529160200191611ce5565b820191905f5260205f20905b815481529060010190602001808311611cc857829003601f168201915b50505091835250506005919091015460ff1615156020909101526060810151909150605011611d28576064611d1b60788461339c565b611d2591906133c7565b91505b505b95945050505050565b5f5f5f5f600c5442611d4591906133da565b90505f611d53601e836133ed565b9050600b54600c5482601e611d6891906133da565b9450945094505050909192565b611d9e60405180608001604052805f81526020015f81526020015f81526020015f151581525090565b60055f836003811115611db357611db3612c61565b6003811115611dc457611dc4612c61565b815260208082019290925260409081015f208151608081018352815481526001820154938101939093526002810154918301919091526003015460ff161515606082015292915050565b600e602052815f5260405f208181548110611e27575f80fd5b905f5260205f20015f91509150505481565b60408051610120810182525f80825260208201819052918101829052606081018290526080810182905260a0810182905260c0810182905260e081018290526101008101919091525f8281526006602090815260409182902082516101208101909352805483526001810154909183019060ff166003811115611ebe57611ebe612c61565b6003811115611ecf57611ecf612c61565b81526002820154602082015260038201546040820152600482015460608201526005820154608082015260069091015460ff808216151560a08401526001600160a01b0361010083041660c0840152600160a81b90910416151560e09091015292915050565b805f81118015611f475750600d548111155b611f635760405162461bcd60e51b81526004016107ff906130dd565b611f6b612a8b565b5f8281526006602052604081206001810154909190600590829060ff166003811115611f9957611f99612c61565b6003811115611faa57611faa612c61565b815260208082019290925260409081015f2081516080810183528154815260018201549381019390935260028101549183019190915260039081015460ff16151560608301528301549091504210156120455760405162461bcd60e51b815260206004820152601b60248201527f4b617261476f7665726e6f723a20566f74696e6720616374697665000000000060448201526064016107ff565b600682015460ff161561209a5760405162461bcd60e51b815260206004820152601e60248201527f4b617261476f7665726e6f723a20416c7265616479206578656375746564000060448201526064016107ff565b6006820154600160a81b900460ff16156120f65760405162461bcd60e51b815260206004820152601d60248201527f4b617261476f7665726e6f723a2050726f706f73616c207665746f656400000060448201526064016107ff565b6002546001600160a01b03161580612197575060025460018301546001600160a01b0390911690639f0b444d9060ff16600381111561213757612137612c61565b6040516001600160e01b031960e084901b16815260ff9091166004820152602401602060405180830381865afa158015612173573d5f5f3e3d5ffd5b505050506040513d601f19601f820116820180604052508101906121979190613141565b6121ef5760405162461bcd60e51b8152602060048201526024808201527f4b617261476f7665726e6f723a205469657220657865637574696f6e20626c6f60448201526318dad95960e21b60648201526084016107ff565b5f826005015483600401546122049190613128565b90505f81116122555760405162461bcd60e51b815260206004820152601b60248201527f4b617261476f7665726e6f723a204e6f20766f7465732063617374000000000060448201526064016107ff565b5f816127108560040154612269919061339c565b61227391906133c7565b905082602001518110156122c95760405162461bcd60e51b815260206004820152601f60248201527f4b617261476f7665726e6f723a205468726573686f6c64206e6f74206d65740060448201526064016107ff565b83600501548460040154116123205760405162461bcd60e51b815260206004820152601860248201527f4b617261476f7665726e6f723a204e6f7420706173736564000000000000000060448201526064016107ff565b60068401805460ff191660011790556003546001600160a01b0316156123d95760038054855460018701546001600160a01b039092169263cde4f2da9260ff169081111561237057612370612c61565b6040516001600160e01b031960e085901b168152600481019290925260ff1660248201526044016020604051808303815f875af11580156123b3573d5f5f3e3d5ffd5b505050506040513d601f19601f820116820180604052508101906123d79190613400565b505b8354600485015460058601546040805193845260208401929092529082015286907ff9082389df6f15d0500576e903e81431a20c3c480b905a38bb79fde8967a04429060600160405180910390a250505050610e6e60015f5160206134185f395f51905f5255565b5f818152600e602090815260409182902080548351818402810184019094528084526060939283018282801561249457602002820191905f5260205f20905b815481526020019060010190808311612480575b50505050509050919050565b6124a8612aa6565b6001600160a01b0381166124fe5760405162461bcd60e51b815260206004820152601e60248201527f4b617261476f7665726e6f723a20496e76616c6964207472656173757279000060448201526064016107ff565b600480546001600160a01b0319166001600160a01b03831617905542600c556040805160808082018352601e82526113896020808401918252683635c9adc5dea00000848601908152600160608087018281525f808052600580875298517f05b8ccbb9d4d8fb16ea74ce3c29a41f1b461fbdaff4714a0d9a8eb05499746bc5595517f05b8ccbb9d4d8fb16ea74ce3c29a41f1b461fbdaff4714a0d9a8eb05499746bd5592517f05b8ccbb9d4d8fb16ea74ce3c29a41f1b461fbdaff4714a0d9a8eb05499746be5591517f05b8ccbb9d4d8fb16ea74ce3c29a41f1b461fbdaff4714a0d9a8eb05499746bf805460ff191691151591909117905586519485018752603c85526117709285019290925269021e19e0c9bab2400000958401959095529382018190529092600381111561263857612638612c61565b81526020019081526020015f205f820151815f015560208201518160010155604082015181600201556060820151816003015f6101000a81548160ff021916908315150217905550905050604051806080016040528061012c8152602001611d4c815260200169152d02c7e14af680000081526020015f151581525060055f600260038111156126ca576126ca612c61565b60038111156126db576126db612c61565b815260208082019290925260409081015f908120845181558484015160018201558483015160028201556060948501516003918201805491151560ff19928316179055835160808101855262015180815261232881870190815269d3c21bcecceda100000095820195865296810184815292909352600590945290517fa9bc9a3a348c357ba16b37005d7e6b3236198c0e939f4af8c5f19b8deeb8ebc05592517fa9bc9a3a348c357ba16b37005d7e6b3236198c0e939f4af8c5f19b8deeb8ebc155517fa9bc9a3a348c357ba16b37005d7e6b3236198c0e939f4af8c5f19b8deeb8ebc25590517fa9bc9a3a348c357ba16b37005d7e6b3236198c0e939f4af8c5f19b8deeb8ebc380549115159190921617905550565b6127fa612aa6565b6001600160a01b03811661282357604051631e4fbdf760e01b81525f60048201526024016107ff565b61282c81612b68565b50565b612837612aa6565b600b8054905f612846836132bd565b909155505042600c819055600b54604051918252907f6778731b259e47db8d144adf2d795ce185c588290643733953fdb9a931225de59060200160405180910390a2565b6128c96040518060c001604052805f6001600160a01b031681526020015f81526020015f81526020015f8152602001606081526020015f151581525090565b6001600160a01b038083165f90815260086020908152604091829020825160c081018452815490941684526001810154918401919091526002810154918301919091526003810154606083015260048101805460808401919061292b90613170565b80601f016020809104026020016040519081016040528092919081815260200182805461295790613170565b80156129a25780601f10612979576101008083540402835291602001916129a2565b820191905f5260205f20905b81548152906001019060200180831161298557829003601f168201915b50505091835250506005919091015460ff16151560209091015292915050565b60086020525f9081526040902080546001820154600283015460038401546004850180546001600160a01b0390951695939492939192612a0190613170565b80601f0160208091040260200160405190810160405280929190818152602001828054612a2d90613170565b8015612a785780601f10612a4f57610100808354040283529160200191612a78565b820191905f5260205f20905b815481529060010190602001808311612a5b57829003601f168201915b5050506005909301549192505060ff1686565b612a93612c1b565b60025f5160206134185f395f51905f5255565b5f546001600160a01b0316331461161e5760405163118cdaa760e01b81523360048201526024016107ff565b5f600c5442612ae191906133da565b90505f612aef601e836133c7565b90508015610e6e5780600b5f828254612b089190613128565b90915550612b199050601e8261339c565b600c5f828254612b299190613128565b9091555050600b546040514281527f6778731b259e47db8d144adf2d795ce185c588290643733953fdb9a931225de59060200160405180910390a25050565b5f80546001600160a01b038381166001600160a01b0319831681178455604051919092169283917f8be0079c531659141344cd1fd0a4f28419497f9722a3daafe3b4186f6b6457e09190a35050565b5f815f03612bc657505f919050565b5f6002612bd4846001613128565b612bde91906133c7565b9050825b80821015612c14575080600281612bf981876133c7565b612c039190613128565b612c0d91906133c7565b9150612be2565b9392505050565b5f5160206134185f395f51905f525460020361161e57604051633ee5aeb560e01b815260040160405180910390fd5b5f60208284031215612c5a575f5ffd5b5035919050565b634e487b7160e01b5f52602160045260245ffd5b60048110612c9157634e487b7160e01b5f52602160045260245ffd5b9052565b8981526101208101612caa602083018b612c75565b60408201989098526060810196909652608086019490945260a0850192909252151560c08401526001600160a01b031660e083015215156101009091015292915050565b801515811461282c575f5ffd5b5f5f60408385031215612d0c575f5ffd5b823591506020830135612d1e81612cee565b809150509250929050565b5f5f60208385031215612d3a575f5ffd5b823567ffffffffffffffff811115612d50575f5ffd5b8301601f81018513612d60575f5ffd5b803567ffffffffffffffff811115612d76575f5ffd5b856020828401011115612d87575f5ffd5b6020919091019590945092505050565b80356001600160a01b0381168114612dad575f5ffd5b919050565b5f5f60408385031215612dc3575f5ffd5b82359150612dd360208401612d97565b90509250929050565b5f60208284031215612dec575f5ffd5b612c1482612d97565b803560048110612dad575f5ffd5b5f5f60408385031215612e14575f5ffd5b82359150612dd360208401612df5565b5f5f5f60608486031215612e36575f5ffd5b612e3f84612d97565b9250612e4d60208501612d97565b9150612e5b60408501612d97565b90509250925092565b5f5f60408385031215612e75575f5ffd5b612e7e83612d97565b946020939093013593505050565b5f60208284031215612e9c575f5ffd5b612c1482612df5565b5f5f5f5f60808587031215612eb8575f5ffd5b612ec185612d97565b966020860135965060408601359560600135945092505050565b5f5f5f5f5f60a08688031215612eef575f5ffd5b612ef886612df5565b94506020860135935060408601359250606086013591506080860135612f1d81612cee565b809150509295509295909350565b5f5f60408385031215612f3c575f5ffd5b50508035926020909101359150565b81518152602080830151610120830191612f6790840182612c75565b5060408301516040830152606083015160608301526080830151608083015260a083015160a083015260c0830151151560c083015260018060a01b0360e08401511660e08301526101008301516114bd61010084018215159052565b602080825282518282018190525f918401906040840190835b81811015612ffa578351835260209384019390920191600101612fdc565b509095945050505050565b5f81518084528060208401602086015e5f602082860101526020601f19601f83011685010191505092915050565b6020815260018060a01b0382511660208201526020820151604082015260408201516060820152606082015160808201525f608083015160c060a084015261307e60e0840182613005565b905060a0840151151560c08401528091505092915050565b60018060a01b038716815285602082015284604082015283606082015260c060808201525f6130c860c0830185613005565b905082151560a0830152979650505050505050565b6020808252601e908201527f4b617261476f7665726e6f723a20496e76616c69642070726f706f73616c0000604082015260600190565b634e487b7160e01b5f52601160045260245ffd5b8082018082111561313b5761313b613114565b92915050565b5f60208284031215613151575f5ffd5b8151612c1481612cee565b634e487b7160e01b5f52604160045260245ffd5b600181811c9082168061318457607f821691505b6020821081036131a257634e487b7160e01b5f52602260045260245ffd5b50919050565b601f821115610a9c5782821115610a9c57805f5260205f20601f840160051c60208510156131d357505f5b90810190601f840160051c035f5b818110156131f6575f838201556001016131e1565b505050505050565b815167ffffffffffffffff8111156132185761321861315c565b61322c816132268454613170565b846131a8565b6020601f82116001811461325e575f83156132475750848201515b5f19600385901b1c1916600184901b1784556132b6565b5f84815260208120601f198516915b8281101561328d578785015182556020948501946001909201910161326d565b50848210156132aa57868401515f19600387901b60f8161c191681555b505060018360011b0184555b5050505050565b5f600182016132ce576132ce613114565b5060010190565b60408152826040820152828460608301375f606084830101525f6060601f19601f8601168301019050826020830152949350505050565b6040810161331a8285612c75565b8260208301529392505050565b6020808252601a908201527f4b617261476f7665726e6f723a20556e617574686f72697a6564000000000000604082015260600190565b5f8161336c5761336c613114565b505f190190565b608081016133818287612c75565b84602083015283604083015282606083015295945050505050565b808202811582820484141761313b5761313b613114565b634e487b7160e01b5f52601260045260245ffd5b5f826133d5576133d56133b3565b500490565b8181038181111561313b5761313b613114565b5f826133fb576133fb6133b3565b500690565b5f60208284031215613410575f5ffd5b505191905056fe9b779b17422d0df92223018b32b4d1fa46e071723d6817e2486d003becc55f00a264697066735822122065ab7f062a581b323197ac6c20ca2d65b5735f4d3e422d67912061bf56c6409964736f6c63430008210033","linkReferences":{}},"methodIdentifiers":{"AGENT_REGISTRATION_STAKE()":"2b925fd0","BASIS_POINTS()":"e1f1c4a7","CYCLE_DURATION()":"cd421fbf","DELEGATE_BONUS()":"4a3002fb","MAX_BETA_AGENTS()":"55eeedd2","MIN_STAKE_TO_VOTE()":"b776c8c9","advanceCycle()":"f82190fa","agents(address)":"fd66091e","betaMode()":"8abe2f26","castVote(uint256,bool)":"15373e3d","currentAgentCount()":"4b961e76","currentCycle()":"bab2f552","cycleProposals(uint256,uint256)":"c7f31138","cycleStartTime()":"335e536c","delegate(address)":"5c19a95c","deregisterAgent()":"a7253704","disableBetaMode()":"b6ff26cd","executeWinningProposal(uint256)":"c8b2e9e2","executor()":"c34c08e5","getAgent(address)":"fb3551ff","getCurrentCycle()":"be26ed7f","getCycleProposals(uint256)":"cc4a8283","getProposal(uint256)":"c7f758a8","getStaker(address)":"a23c44b1","getTierConfig(uint8)":"c022c523","getVotingPower(address)":"bb4d4436","hasVoted(uint256,address)":"43859632","isWhitelistedAgent(address)":"80e5694d","karaToken()":"fcd36747","owner()":"8da5cb5b","proposalCount()":"da35c664","proposals(uint256)":"013cf08b","registerAgent(string)":"2d2a9585","removeWhitelist(address)":"78c8cda7","renounceOwnership()":"715018a6","safety()":"6e3f795a","setTreasury(address)":"f0f44260","stakers(address)":"9168ae72","submitProposal(bytes32,uint8)":"5c713b9d","tierConfigs(uint8)":"9da9db2a","transferOwnership(address)":"f2fde38b","treasury()":"61d027b3","updateAgentReputation(address,uint256)":"9259b274","updateContracts(address,address,address)":"6dca4d44","updateStakerInfo(address,uint256,uint256,uint256)":"b5cae076","updateTierConfig(uint8,uint256,uint256,uint256,bool)":"b8e69b4e","vetoProposal(uint256)":"6f65108c","whitelistAgent(address)":"5b1f95a8"},"id":2}