{"abi":[{"type":"constructor","inputs":[{"name":"_governor","type":"address","internalType":"address"},{"name":"_treasury","type":"address","internalType":"address"},{"name":"_executor","type":"address","internalType":"address"},{"name":"_karaToken","type":"address","internalType":"address"},{"name":"_sam","type":"address","internalType":"address"}],"stateMutability":"nonpayable"},{"type":"function","name":"APPEAL_WINDOW","inputs":[],"outputs":[{"name":"","type":"uint256","internalType":"uint256"}],"stateMutability":"view"},{"type":"function","name":"addGuardian","inputs":[{"name":"guardian","type":"address","internalType":"address"}],"outputs":[],"stateMutability":"nonpayable"},{"type":"function","name":"appealSlash","inputs":[{"name":"slashId","type":"uint256","internalType":"uint256"},{"name":"appealReason","type":"string","internalType":"string"}],"outputs":[],"stateMutability":"nonpayable"},{"type":"function","name":"canExecute","inputs":[{"name":"tier","type":"uint8","internalType":"uint8"}],"outputs":[{"name":"","type":"bool","internalType":"bool"}],"stateMutability":"view"},{"type":"function","name":"circuitBreakers","inputs":[{"name":"","type":"uint8","internalType":"uint8"}],"outputs":[{"name":"failureThreshold","type":"uint256","internalType":"uint256"},{"name":"windowSize","type":"uint256","internalType":"uint256"},{"name":"cooldownPeriod","type":"uint256","internalType":"uint256"},{"name":"autoTriggerEnabled","type":"bool","internalType":"bool"}],"stateMutability":"view"},{"type":"function","name":"criticalVetoes","inputs":[{"name":"","type":"uint256","internalType":"uint256"}],"outputs":[{"name":"","type":"bool","internalType":"bool"}],"stateMutability":"view"},{"type":"function","name":"emergencyPause","inputs":[{"name":"tier","type":"uint8","internalType":"uint8"}],"outputs":[],"stateMutability":"nonpayable"},{"type":"function","name":"emergencyUnpause","inputs":[{"name":"tier","type":"uint8","internalType":"uint8"}],"outputs":[],"stateMutability":"nonpayable"},{"type":"function","name":"executor","inputs":[],"outputs":[{"name":"","type":"address","internalType":"contract IKaraExecutor"}],"stateMutability":"view"},{"type":"function","name":"failureCount","inputs":[{"name":"","type":"uint8","internalType":"uint8"}],"outputs":[{"name":"","type":"uint256","internalType":"uint256"}],"stateMutability":"view"},{"type":"function","name":"getCircuitBreakerStatus","inputs":[{"name":"tier","type":"uint8","internalType":"uint8"}],"outputs":[{"name":"failures","type":"uint256","internalType":"uint256"},{"name":"lastFailure","type":"uint256","internalType":"uint256"},{"name":"pausedUntil","type":"uint256","internalType":"uint256"},{"name":"isActive","type":"bool","internalType":"bool"}],"stateMutability":"view"},{"type":"function","name":"getSlashRecord","inputs":[{"name":"slashId","type":"uint256","internalType":"uint256"}],"outputs":[{"name":"","type":"tuple","internalType":"struct KaraSafety.SlashRecord","components":[{"name":"agent","type":"address","internalType":"address"},{"name":"amount","type":"uint256","internalType":"uint256"},{"name":"reason","type":"string","internalType":"string"},{"name":"timestamp","type":"uint256","internalType":"uint256"},{"name":"appealed","type":"bool","internalType":"bool"},{"name":"overturned","type":"bool","internalType":"bool"}]}],"stateMutability":"view"},{"type":"function","name":"globalPause","inputs":[],"outputs":[],"stateMutability":"nonpayable"},{"type":"function","name":"globalPaused","inputs":[],"outputs":[{"name":"","type":"bool","internalType":"bool"}],"stateMutability":"view"},{"type":"function","name":"globalUnpause","inputs":[],"outputs":[],"stateMutability":"nonpayable"},{"type":"function","name":"governor","inputs":[],"outputs":[{"name":"","type":"address","internalType":"contract IKaraGovernor"}],"stateMutability":"view"},{"type":"function","name":"guardians","inputs":[{"name":"","type":"address","internalType":"address"}],"outputs":[{"name":"","type":"bool","internalType":"bool"}],"stateMutability":"view"},{"type":"function","name":"isGuardian","inputs":[{"name":"addr","type":"address","internalType":"address"}],"outputs":[{"name":"","type":"bool","internalType":"bool"}],"stateMutability":"view"},{"type":"function","name":"isPaused","inputs":[{"name":"tier","type":"uint8","internalType":"uint8"}],"outputs":[{"name":"","type":"bool","internalType":"bool"}],"stateMutability":"view"},{"type":"function","name":"isVetoed","inputs":[{"name":"proposalId","type":"uint256","internalType":"uint256"}],"outputs":[{"name":"","type":"bool","internalType":"bool"}],"stateMutability":"view"},{"type":"function","name":"karaToken","inputs":[],"outputs":[{"name":"","type":"address","internalType":"contract IKaraToken"}],"stateMutability":"view"},{"type":"function","name":"lastFailureTime","inputs":[{"name":"","type":"uint8","internalType":"uint8"}],"outputs":[{"name":"","type":"uint256","internalType":"uint256"}],"stateMutability":"view"},{"type":"function","name":"overturnSlash","inputs":[{"name":"slashId","type":"uint256","internalType":"uint256"},{"name":"reason","type":"string","internalType":"string"}],"outputs":[],"stateMutability":"nonpayable"},{"type":"function","name":"owner","inputs":[],"outputs":[{"name":"","type":"address","internalType":"address"}],"stateMutability":"view"},{"type":"function","name":"pauseEndTime","inputs":[{"name":"","type":"uint8","internalType":"uint8"}],"outputs":[{"name":"","type":"uint256","internalType":"uint256"}],"stateMutability":"view"},{"type":"function","name":"recordFailure","inputs":[{"name":"tier","type":"uint8","internalType":"uint8"}],"outputs":[],"stateMutability":"nonpayable"},{"type":"function","name":"removeGuardian","inputs":[{"name":"guardian","type":"address","internalType":"address"}],"outputs":[],"stateMutability":"nonpayable"},{"type":"function","name":"renounceOwnership","inputs":[],"outputs":[],"stateMutability":"nonpayable"},{"type":"function","name":"resetFailureCount","inputs":[{"name":"tier","type":"uint8","internalType":"uint8"}],"outputs":[],"stateMutability":"nonpayable"},{"type":"function","name":"sam","inputs":[],"outputs":[{"name":"","type":"address","internalType":"address"}],"stateMutability":"view"},{"type":"function","name":"slashAgent","inputs":[{"name":"agent","type":"address","internalType":"address"},{"name":"amount","type":"uint256","internalType":"uint256"},{"name":"reason","type":"string","internalType":"string"}],"outputs":[{"name":"","type":"uint256","internalType":"uint256"}],"stateMutability":"nonpayable"},{"type":"function","name":"slashCount","inputs":[],"outputs":[{"name":"","type":"uint256","internalType":"uint256"}],"stateMutability":"view"},{"type":"function","name":"slashRecords","inputs":[{"name":"","type":"uint256","internalType":"uint256"}],"outputs":[{"name":"agent","type":"address","internalType":"address"},{"name":"amount","type":"uint256","internalType":"uint256"},{"name":"reason","type":"string","internalType":"string"},{"name":"timestamp","type":"uint256","internalType":"uint256"},{"name":"appealed","type":"bool","internalType":"bool"},{"name":"overturned","type":"bool","internalType":"bool"}],"stateMutability":"view"},{"type":"function","name":"tierPaused","inputs":[{"name":"","type":"uint8","internalType":"uint8"}],"outputs":[{"name":"","type":"bool","internalType":"bool"}],"stateMutability":"view"},{"type":"function","name":"totalSlashed","inputs":[],"outputs":[{"name":"","type":"uint256","internalType":"uint256"}],"stateMutability":"view"},{"type":"function","name":"transferOwnership","inputs":[{"name":"newOwner","type":"address","internalType":"address"}],"outputs":[],"stateMutability":"nonpayable"},{"type":"function","name":"treasury","inputs":[],"outputs":[{"name":"","type":"address","internalType":"contract IKaraTreasury"}],"stateMutability":"view"},{"type":"function","name":"triggerCircuitBreaker","inputs":[{"name":"tier","type":"uint8","internalType":"uint8"},{"name":"duration","type":"uint256","internalType":"uint256"}],"outputs":[],"stateMutability":"nonpayable"},{"type":"function","name":"updateCircuitBreaker","inputs":[{"name":"tier","type":"uint8","internalType":"uint8"},{"name":"threshold","type":"uint256","internalType":"uint256"},{"name":"windowSize","type":"uint256","internalType":"uint256"},{"name":"cooldown","type":"uint256","internalType":"uint256"},{"name":"autoTrigger","type":"bool","internalType":"bool"}],"outputs":[],"stateMutability":"nonpayable"},{"type":"function","name":"updateContracts","inputs":[{"name":"_governor","type":"address","internalType":"address"},{"name":"_treasury","type":"address","internalType":"address"},{"name":"_executor","type":"address","internalType":"address"},{"name":"_karaToken","type":"address","internalType":"address"}],"outputs":[],"stateMutability":"nonpayable"},{"type":"function","name":"updateSam","inputs":[{"name":"newSam","type":"address","internalType":"address"}],"outputs":[],"stateMutability":"nonpayable"},{"type":"function","name":"vetoCritical","inputs":[{"name":"proposalId","type":"uint256","internalType":"uint256"},{"name":"reason","type":"string","internalType":"string"}],"outputs":[],"stateMutability":"nonpayable"},{"type":"function","name":"vetoReasons","inputs":[{"name":"","type":"uint256","internalType":"uint256"}],"outputs":[{"name":"","type":"string","internalType":"string"}],"stateMutability":"view"},{"type":"event","name":"AgentSlashed","inputs":[{"name":"slashId","type":"uint256","indexed":true,"internalType":"uint256"},{"name":"agent","type":"address","indexed":true,"internalType":"address"},{"name":"amount","type":"uint256","indexed":false,"internalType":"uint256"},{"name":"reason","type":"string","indexed":false,"internalType":"string"}],"anonymous":false},{"type":"event","name":"CircuitBreakerTriggered","inputs":[{"name":"tier","type":"uint8","indexed":true,"internalType":"uint8"},{"name":"failureCount","type":"uint256","indexed":false,"internalType":"uint256"},{"name":"pauseUntil","type":"uint256","indexed":false,"internalType":"uint256"}],"anonymous":false},{"type":"event","name":"CriticalVetoed","inputs":[{"name":"proposalId","type":"uint256","indexed":true,"internalType":"uint256"},{"name":"by","type":"address","indexed":true,"internalType":"address"},{"name":"reason","type":"string","indexed":false,"internalType":"string"}],"anonymous":false},{"type":"event","name":"EmergencyPaused","inputs":[{"name":"tier","type":"uint8","indexed":true,"internalType":"uint8"},{"name":"by","type":"address","indexed":true,"internalType":"address"},{"name":"duration","type":"uint256","indexed":false,"internalType":"uint256"}],"anonymous":false},{"type":"event","name":"EmergencyUnpaused","inputs":[{"name":"tier","type":"uint8","indexed":true,"internalType":"uint8"},{"name":"by","type":"address","indexed":true,"internalType":"address"}],"anonymous":false},{"type":"event","name":"FailureRecorded","inputs":[{"name":"tier","type":"uint8","indexed":true,"internalType":"uint8"},{"name":"count","type":"uint256","indexed":false,"internalType":"uint256"}],"anonymous":false},{"type":"event","name":"GlobalPaused","inputs":[{"name":"by","type":"address","indexed":true,"internalType":"address"}],"anonymous":false},{"type":"event","name":"GlobalUnpaused","inputs":[{"name":"by","type":"address","indexed":true,"internalType":"address"}],"anonymous":false},{"type":"event","name":"GuardianAdded","inputs":[{"name":"guardian","type":"address","indexed":true,"internalType":"address"}],"anonymous":false},{"type":"event","name":"GuardianRemoved","inputs":[{"name":"guardian","type":"address","indexed":true,"internalType":"address"}],"anonymous":false},{"type":"event","name":"OwnershipTransferred","inputs":[{"name":"previousOwner","type":"address","indexed":true,"internalType":"address"},{"name":"newOwner","type":"address","indexed":true,"internalType":"address"}],"anonymous":false},{"type":"event","name":"SamUpdated","inputs":[{"name":"newSam","type":"address","indexed":true,"internalType":"address"}],"anonymous":false},{"type":"event","name":"SlashAppealed","inputs":[{"name":"slashId","type":"uint256","indexed":true,"internalType":"uint256"},{"name":"appealReason","type":"string","indexed":false,"internalType":"string"}],"anonymous":false},{"type":"event","name":"SlashOverturned","inputs":[{"name":"slashId","type":"uint256","indexed":true,"internalType":"uint256"},{"name":"reason","type":"string","indexed":false,"internalType":"string"}],"anonymous":false},{"type":"error","name":"OwnableInvalidOwner","inputs":[{"name":"owner","type":"address","internalType":"address"}]},{"type":"error","name":"OwnableUnauthorizedAccount","inputs":[{"name":"account","type":"address","internalType":"address"}]},{"type":"error","name":"ReentrancyGuardReentrantCall","inputs":[]}],"bytecode":{"object":"0x608060405234801561000f575f5ffd5b5060405161277b38038061277b83398101604081905261002e916104d1565b338061005457604051631e4fbdf760e01b81525f60048201526024015b60405180910390fd5b61005d81610467565b5060017f9b779b17422d0df92223018b32b4d1fa46e071723d6817e2486d003becc55f00556001600160a01b0381166100d85760405162461bcd60e51b815260206004820152601f60248201527f4b6172615361666574793a20496e76616c69642053616d206164647265737300604482015260640161004b565b6001600160a01b0385161561010357600180546001600160a01b0319166001600160a01b0387161790555b600280546001600160a01b03199081166001600160a01b03968716178255600380548216958716959095178555600480548216948716949094179093556005805490931691909416178155604080516080808201835283825260146020808401918252610e10848601818152600160608088018281525f808052600880885299517f5eff886ea0ce6ca488a3d6e336d6c0f75f46d19b42c06ce5ee98e42c96d256c75596517f5eff886ea0ce6ca488a3d6e336d6c0f75f46d19b42c06ce5ee98e42c96d256c85592517f5eff886ea0ce6ca488a3d6e336d6c0f75f46d19b42c06ce5ee98e42c96d256c95591517f5eff886ea0ce6ca488a3d6e336d6c0f75f46d19b42c06ce5ee98e42c96d256ca805460ff1990811692151592909217905588518088018a528b8152600a818701908152818b019586528185018481528489528a885291517fad67d757c34507f157cacfa2e3153e9f260a2244f30428821be7be64587ac55f55517fad67d757c34507f157cacfa2e3153e9f260a2244f30428821be7be64587ac5605593517fad67d757c34507f157cacfa2e3153e9f260a2244f30428821be7be64587ac5615592517fad67d757c34507f157cacfa2e3153e9f260a2244f30428821be7be64587ac56280548516911515919091179055875180870189528b8152808501998a52613840818a019081528184018381529c875288865290517f6add646517a5b0f6793cd5891b7937d28a5b2981a5d88ebc7cd776088fea90415598517f6add646517a5b0f6793cd5891b7937d28a5b2981a5d88ebc7cd776088fea90425597517f6add646517a5b0f6793cd5891b7937d28a5b2981a5d88ebc7cd776088fea90435598517f6add646517a5b0f6793cd5891b7937d28a5b2981a5d88ebc7cd776088fea90448054831691151591909117905585519384018652868452838201968752620151809584019586529783018281529690915291909152517f625b35f5e76f098dd7c3a05b10e2e5e78a4a01228d60c3b143426cdf36d264555590517f625b35f5e76f098dd7c3a05b10e2e5e78a4a01228d60c3b143426cdf36d2645655517f625b35f5e76f098dd7c3a05b10e2e5e78a4a01228d60c3b143426cdf36d2645755517f625b35f5e76f098dd7c3a05b10e2e5e78a4a01228d60c3b143426cdf36d26458805490921690151517905550610532565b5f80546001600160a01b038381166001600160a01b0319831681178455604051919092169283917f8be0079c531659141344cd1fd0a4f28419497f9722a3daafe3b4186f6b6457e09190a35050565b80516001600160a01b03811681146104cc575f5ffd5b919050565b5f5f5f5f5f60a086880312156104e5575f5ffd5b6104ee866104b6565b94506104fc602087016104b6565b935061050a604087016104b6565b9250610518606087016104b6565b9150610526608087016104b6565b90509295509295909350565b61223c8061053f5f395ff3fe608060405234801561000f575f5ffd5b5060043610610260575f3560e01c806378177ce91161014b578063bc61e733116100bf578063f269a21e11610084578063f269a21e14610601578063f2fde38b1461060b578063f33c7fc01461061e578063f46ec2e81461065c578063fb5b3cdc1461066f578063fcd3674714610691575f5ffd5b8063bc61e733146105b8578063c34c08e5146105cb578063ca8c4d3a146105de578063ce190578146105f1578063f12d54d8146105f9575f5ffd5b8063955ef8b311610110578063955ef8b3146105505780639f0b444d14610563578063a201bbdd14610576578063a526d83b1461057f578063a643511114610592578063a866dcec146105a5575f5ffd5b806378177ce9146104ca5780637edba6c8146104ec578063836bc014146104ff578063873def8c1461051e5780638da5cb5b14610540575f5ffd5b80633b428929116101e257806361d027b3116101a757806361d027b31461044a57806362273e011461045d5780636b56c29e1461047d5780636f00f1101461049057806371404156146104af578063715018a6146104c2575f5ffd5b80633b428929146103e15780634b349a40146103f45780634d21497f1461042157806357ff7e091461042a57806361a552dc1461043d575f5ffd5b80630c68ba21116102285780630c68ba2114610312578063105a89c21461033d5780631e7dba631461039657806321e9e36f146103a95780632f8d0e85146103bc575f5ffd5b806305182a4b1461026457806305a894e71461028d5780630633b14a146102a25780630b751279146102d45780630c340a24146102e7575b5f5ffd5b610277610272366004611b4c565b6106a4565b6040516102849190611b91565b60405180910390f35b6102a061029b366004611c3b565b6107de565b005b6102c46102b0366004611c9e565b60116020525f908152604090205460ff1681565b6040519015158152602001610284565b6102a06102e2366004611cbe565b610955565b6001546102fa906001600160a01b031681565b6040516001600160a01b039091168152602001610284565b6102c4610320366004611c9e565b6001600160a01b03165f9081526011602052604090205460ff1690565b61037461034b366004611d1f565b60086020525f908152604090208054600182015460028301546003909301549192909160ff1684565b6040805194855260208501939093529183015215156060820152608001610284565b6102a06103a4366004611c9e565b610a45565b6102a06103b7366004611d1f565b610b0d565b6103cf6103ca366004611b4c565b610bf4565b60405161028496959493929190611d38565b6102a06103ef366004611d1f565b610cbf565b610413610402366004611d1f565b60096020525f908152604090205481565b604051908152602001610284565b610413600d5481565b6102a0610438366004611d1f565b610d10565b6007546102c49060ff1681565b6002546102fa906001600160a01b031681565b61047061046b366004611b4c565b610e06565b6040516102849190611d7e565b6102a061048b366004611d90565b610e9d565b61041361049e366004611d1f565b600b6020525f908152604090205481565b6102a06104bd366004611c9e565b610f81565b6102a0611007565b6102c46104d8366004611b4c565b600f6020525f908152604090205460ff1681565b6005546102fa906001600160a01b031681565b61041361050d366004611d1f565b600a6020525f908152604090205481565b6102c461052c366004611b4c565b5f908152600f602052604090205460ff1690565b5f546001600160a01b03166102fa565b61041361055e366004611db8565b61101a565b6102c4610571366004611d1f565b611309565b610413600e5481565b6102a061058d366004611c9e565b611364565b6102a06105a0366004611c3b565b611443565b6102a06105b3366004611c3b565b6115f9565b6102c46105c6366004611d1f565b61169a565b6003546102fa906001600160a01b031681565b6102a06105ec366004611d1f565b6116f7565b6102a06117b3565b6102a0611813565b61041362093a8081565b6102a0610619366004611c9e565b611876565b61037461062c366004611d1f565b60ff81165f90815260096020908152604080832054600a835281842054600b909352922054428110159193509193565b6102a061066a366004611e0e565b6118b0565b6102c461067d366004611d1f565b60066020525f908152604090205460ff1681565b6004546102fa906001600160a01b031681565b6106e56040518060c001604052805f6001600160a01b031681526020015f8152602001606081526020015f81526020015f151581526020015f151581525090565b5f828152600c6020908152604091829020825160c08101845281546001600160a01b03168152600182015492810192909252600281018054929391929184019161072e90611e62565b80601f016020809104026020016040519081016040528092919081815260200182805461075a90611e62565b80156107a55780601f1061077c576101008083540402835291602001916107a5565b820191905f5260205f20905b81548152906001019060200180831161078857829003601f168201915b50505091835250506003820154602082015260049091015460ff8082161515604084015261010090910416151560609091015292915050565b5f831180156107ef5750600d548311155b6108405760405162461bcd60e51b815260206004820152601c60248201527f4b6172615361666574793a20496e76616c696420736c6173682049440000000060448201526064015b60405180910390fd5b5f838152600c60205260409020600481015460ff16156108a25760405162461bcd60e51b815260206004820152601c60248201527f4b6172615361666574793a20416c72656164792061707065616c6564000000006044820152606401610837565b62093a8081600301546108b59190611eae565b4211156109045760405162461bcd60e51b815260206004820181905260248201527f4b6172615361666574793a2041707065616c2077696e646f7720636c6f7365646044820152606401610837565b60048101805460ff1916600117905560405184907f739129b54408bd817c3431a15f46d6f993752b352b41383dc0e1a8b8731345ff906109479086908690611eef565b60405180910390a250505050565b6005546001600160a01b031633148061097757505f546001600160a01b031633145b6109935760405162461bcd60e51b815260040161083790611f02565b6001600160a01b038416156109be57600180546001600160a01b0319166001600160a01b0386161790555b6001600160a01b038316156109e957600280546001600160a01b0319166001600160a01b0385161790555b6001600160a01b03821615610a1457600380546001600160a01b0319166001600160a01b0384161790555b6001600160a01b03811615610a3f57600480546001600160a01b0319166001600160a01b0383161790555b50505050565b6005546001600160a01b03163314610a6f5760405162461bcd60e51b815260040161083790611f39565b6001600160a01b038116610ac55760405162461bcd60e51b815260206004820152601b60248201527f4b6172615361666574793a20496e76616c6964206164647265737300000000006044820152606401610837565b600580546001600160a01b0319166001600160a01b0383169081179091556040517ee21773372ec6c182078166cbc9531b153f7ac313f00fc9c097420293f0e9e0905f90a250565b60038160ff161115610b315760405162461bcd60e51b815260040161083790611f67565b6005546001600160a01b0316331480610b5357505f546001600160a01b031633145b15610ba95760ff81165f818152600660209081526040808320805460ff19169055600b909152808220829055513392917fba463614586ea3ab97e7236b99e49d0bb4e61a07f78118a8293dd036d55b93c691a350565b60405162461bcd60e51b815260206004820181905260248201527f4b6172615361666574793a204f6e6c792053616d206f722044414f20766f74656044820152606401610837565b50565b600c6020525f90815260409020805460018201546002830180546001600160a01b03909316939192610c2590611e62565b80601f0160208091040260200160405190810160405280929190818152602001828054610c5190611e62565b8015610c9c5780601f10610c7357610100808354040283529160200191610c9c565b820191905f5260205f20905b815481529060010190602001808311610c7f57829003601f168201915b50505050600383015460049093015491929160ff80821692506101009091041686565b6005546001600160a01b0316331480610ce157505f546001600160a01b031633145b610cfd5760405162461bcd60e51b815260040161083790611f02565b60ff165f90815260096020526040812055565b335f9081526011602052604090205460ff1680610d3757506005546001600160a01b031633145b80610d4b57505f546001600160a01b031633145b610d675760405162461bcd60e51b815260040161083790611f9e565b60038160ff161115610d8b5760405162461bcd60e51b815260040161083790611f67565b60ff81165f908152600960205260408120805491610da883611fd5565b909155505060ff81165f818152600a6020908152604080832042905560098252918290205491519182527f77e1a5cf10264331a43de87d1759a6874e48bde7aefa05b30d9cb8e4a47bb7de910160405180910390a2610bf181611971565b60106020525f908152604090208054610e1e90611e62565b80601f0160208091040260200160405190810160405280929190818152602001828054610e4a90611e62565b8015610e955780601f10610e6c57610100808354040283529160200191610e95565b820191905f5260205f20905b815481529060010190602001808311610e7857829003601f168201915b505050505081565b335f9081526011602052604090205460ff1680610ec457506005546001600160a01b031633145b80610ed857505f546001600160a01b031633145b610ef45760405162461bcd60e51b815260040161083790611f9e565b60038260ff161115610f185760405162461bcd60e51b815260040161083790611f67565b610f228142611eae565b60ff83165f818152600b60208181526040808420869055600982529283902054918152825191825281019390935290917f4fa52a45d7e5a216674f536c9e84f867dce6e9a6c6b5fe88f640855bf9225681910160405180910390a25050565b6005546001600160a01b0316331480610fa357505f546001600160a01b031633145b610fbf5760405162461bcd60e51b815260040161083790611f02565b6001600160a01b0381165f81815260116020526040808220805460ff19169055517fb8107d0c6b40be480ce3172ee66ba6d64b71f6b1685a851340036e6e2e3e3c529190a250565b61100f611a61565b6110185f611a8d565b565b335f9081526011602052604081205460ff168061104157506005546001600160a01b031633145b8061105557505f546001600160a01b031633145b6110715760405162461bcd60e51b815260040161083790611f9e565b611079611adc565b6001600160a01b0385166110cf5760405162461bcd60e51b815260206004820152601960248201527f4b6172615361666574793a20496e76616c6964206167656e74000000000000006044820152606401610837565b5f841161111e5760405162461bcd60e51b815260206004820152601a60248201527f4b6172615361666574793a20496e76616c696420616d6f756e740000000000006044820152606401610837565b8161116b5760405162461bcd60e51b815260206004820152601860248201527f4b6172615361666574793a20456d70747920726561736f6e00000000000000006044820152606401610837565b600d8054905f61117a83611fd5565b91905055506040518060c00160405280866001600160a01b0316815260200185815260200184848080601f0160208091040260200160405190810160405280939291908181526020018383808284375f92018290525093855250504260208085019190915260408085018490526060909401839052600d548352600c815291839020845181546001600160a01b0319166001600160a01b03909116178155918401516001830155509082015160028201906112359082612058565b506060820151600382015560808201516004909101805460a09093015115156101000261ff00199215159290921661ffff1990931692909217179055600e80548591905f90611285908490611eae565b92505081905550846001600160a01b0316600d547fac95987a33b2d65c53785009e5765f9c4f4fe53c7e70ee83ebba54c3740f69fb8686866040516112cc93929190612117565b60405180910390a350600d5461130160017f9b779b17422d0df92223018b32b4d1fa46e071723d6817e2486d003becc55f0055565b949350505050565b6007545f9060ff161561131d57505f919050565b60ff8083165f90815260066020526040902054161561133d57505f919050565b60ff82165f908152600b6020526040902054421161135c57505f919050565b506001919050565b6005546001600160a01b031633148061138657505f546001600160a01b031633145b6113a25760405162461bcd60e51b815260040161083790611f02565b6001600160a01b0381166113f85760405162461bcd60e51b815260206004820152601b60248201527f4b6172615361666574793a20496e76616c6964206164647265737300000000006044820152606401610837565b6001600160a01b0381165f81815260116020526040808220805460ff19166001179055517f038596bb31e2e7d3d9f184d4c98b310103f6d7f5830e5eec32bffe6f1728f9699190a250565b6005546001600160a01b031633148061146557505f546001600160a01b031633145b6114815760405162461bcd60e51b815260040161083790611f02565b5f831180156114925750600d548311155b6114de5760405162461bcd60e51b815260206004820152601c60248201527f4b6172615361666574793a20496e76616c696420736c617368204944000000006044820152606401610837565b5f838152600c60205260409020600481015460ff1661153f5760405162461bcd60e51b815260206004820152601860248201527f4b6172615361666574793a204e6f742061707065616c656400000000000000006044820152606401610837565b6004810154610100900460ff16156115995760405162461bcd60e51b815260206004820152601e60248201527f4b6172615361666574793a20416c7265616479206f7665727475726e656400006044820152606401610837565b60048101805461ff0019166101001790556001810154600e80545f906115c0908490612139565b92505081905550837fda05f93927ac437733d15b296a2802f0b0e033766f15cd370d8cfddca97dc4fe8484604051610947929190611eef565b6005546001600160a01b031633146116235760405162461bcd60e51b815260040161083790611f39565b5f838152600f60209081526040808320805460ff191660011790556010909152902061165082848361214c565b50336001600160a01b0316837f9ea0d44414106aee93d85ba3829eb81d8fe6ddc6a74cf08cf620bc96055fb885848460405161168d929190611eef565b60405180910390a3505050565b6007545f9060ff16156116af57506001919050565b60ff8083165f9081526006602052604090205416156116d057506001919050565b60ff82165f908152600b602052604090205442116116f057506001919050565b505f919050565b6005546001600160a01b031633148061171957505f546001600160a01b031633145b6117355760405162461bcd60e51b815260040161083790611f02565b60038160ff1611156117595760405162461bcd60e51b815260040161083790611f67565b60ff81165f81815260066020526040808220805460ff19166001179055513392917fd06c42a4389f6abc36122501fb602b09c069c235f8a96fefa258e0b58c88d967916117a891815260200190565b60405180910390a350565b6005546001600160a01b031633146117dd5760405162461bcd60e51b815260040161083790611f39565b6007805460ff1916905560405133907fd8d08497c02438f5a32e37a6f28306a0c754868caf16d03415f3f97cfd0ba4f3905f90a2565b6005546001600160a01b0316331461183d5760405162461bcd60e51b815260040161083790611f39565b6007805460ff1916600117905560405133907f8bc2b99bfe11bf198e76e281430752d814ff2182396d6077862d811084940095905f90a2565b61187e611a61565b6001600160a01b0381166118a757604051631e4fbdf760e01b81525f6004820152602401610837565b610bf181611a8d565b6005546001600160a01b03163314806118d257505f546001600160a01b031633145b6118ee5760405162461bcd60e51b815260040161083790611f02565b60038560ff1611156119125760405162461bcd60e51b815260040161083790611f67565b6040805160808101825294855260208086019485528582019384529115156060860190815260ff969096165f90815260089092529020925183559051600183015551600282015590516003909101805460ff1916911515919091179055565b60ff8082165f908152600860209081526040918290208251608081018452815481526001820154928101929092526002810154928201929092526003909101549091161515606082018190526119c5575050565b805160ff83165f9081526009602052604090205410156119e3575050565b60408101516119f29042611eae565b60ff83165f818152600b60208181526040808420869055600982529283902054918152825191825281019390935290917f4fa52a45d7e5a216674f536c9e84f867dce6e9a6c6b5fe88f640855bf9225681910160405180910390a25060ff165f90815260096020526040812055565b5f546001600160a01b031633146110185760405163118cdaa760e01b8152336004820152602401610837565b5f80546001600160a01b038381166001600160a01b0319831681178455604051919092169283917f8be0079c531659141344cd1fd0a4f28419497f9722a3daafe3b4186f6b6457e09190a35050565b611ae4611b0a565b60027f9b779b17422d0df92223018b32b4d1fa46e071723d6817e2486d003becc55f0055565b7f9b779b17422d0df92223018b32b4d1fa46e071723d6817e2486d003becc55f005460020361101857604051633ee5aeb560e01b815260040160405180910390fd5b5f60208284031215611b5c575f5ffd5b5035919050565b5f81518084528060208401602086015e5f602082860101526020601f19601f83011685010191505092915050565b6020815260018060a01b038251166020820152602082015160408201525f604083015160c06060840152611bc860e0840182611b63565b9050606084015160808401526080840151151560a084015260a0840151151560c08401528091505092915050565b5f5f83601f840112611c06575f5ffd5b50813567ffffffffffffffff811115611c1d575f5ffd5b602083019150836020828501011115611c34575f5ffd5b9250929050565b5f5f5f60408486031215611c4d575f5ffd5b83359250602084013567ffffffffffffffff811115611c6a575f5ffd5b611c7686828701611bf6565b9497909650939450505050565b80356001600160a01b0381168114611c99575f5ffd5b919050565b5f60208284031215611cae575f5ffd5b611cb782611c83565b9392505050565b5f5f5f5f60808587031215611cd1575f5ffd5b611cda85611c83565b9350611ce860208601611c83565b9250611cf660408601611c83565b9150611d0460608601611c83565b905092959194509250565b803560ff81168114611c99575f5ffd5b5f60208284031215611d2f575f5ffd5b611cb782611d0f565b60018060a01b038716815285602082015260c060408201525f611d5e60c0830187611b63565b6060830195909552509115156080830152151560a0909101529392505050565b602081525f611cb76020830184611b63565b5f5f60408385031215611da1575f5ffd5b611daa83611d0f565b946020939093013593505050565b5f5f5f5f60608587031215611dcb575f5ffd5b611dd485611c83565b935060208501359250604085013567ffffffffffffffff811115611df6575f5ffd5b611e0287828801611bf6565b95989497509550505050565b5f5f5f5f5f60a08688031215611e22575f5ffd5b611e2b86611d0f565b945060208601359350604086013592506060860135915060808601358015158114611e54575f5ffd5b809150509295509295909350565b600181811c90821680611e7657607f821691505b602082108103611e9457634e487b7160e01b5f52602260045260245ffd5b50919050565b634e487b7160e01b5f52601160045260245ffd5b80820180821115611ec157611ec1611e9a565b92915050565b81835281816020850137505f828201602090810191909152601f909101601f19169091010190565b602081525f611301602083018486611ec7565b6020808252601d908201527f4b6172615361666574793a204f6e6c792053616d206f72206f776e6572000000604082015260600190565b6020808252601490820152734b6172615361666574793a204f6e6c792053616d60601b604082015260600190565b60208082526018908201527f4b6172615361666574793a20496e76616c696420746965720000000000000000604082015260600190565b6020808252601a908201527f4b6172615361666574793a204e6f7420617574686f72697a6564000000000000604082015260600190565b5f60018201611fe657611fe6611e9a565b5060010190565b634e487b7160e01b5f52604160045260245ffd5b601f821115612053578282111561205357805f5260205f20601f840160051c602085101561202c57505f5b90810190601f840160051c035f5b8181101561204f575f8382015560010161203a565b5050505b505050565b815167ffffffffffffffff81111561207257612072611fed565b612086816120808454611e62565b84612001565b6020601f8211600181146120b8575f83156120a15750848201515b5f19600385901b1c1916600184901b178455612110565b5f84815260208120601f198516915b828110156120e757878501518255602094850194600190920191016120c7565b508482101561210457868401515f19600387901b60f8161c191681555b505060018360011b0184555b5050505050565b838152604060208201525f612130604083018486611ec7565b95945050505050565b81810381811115611ec157611ec1611e9a565b67ffffffffffffffff83111561216457612164611fed565b612178836121728354611e62565b83612001565b5f601f8411600181146121a9575f85156121925750838201355b5f19600387901b1c1916600186901b178355612110565b5f83815260208120601f198716915b828110156121d857868501358255602094850194600190920191016121b8565b50868210156121f4575f1960f88860031b161c19848701351681555b505060018560011b018355505050505056fea26469706673582212205d607dfdda56a4ad919447215e3e9bc0351954435a850e8054fd924033a78ea064736f6c63430008210033","linkReferences":{}},"methodIdentifiers":{"APPEAL_WINDOW()":"f269a21e","addGuardian(address)":"a526d83b","appealSlash(uint256,string)":"05a894e7","canExecute(uint8)":"9f0b444d","circuitBreakers(uint8)":"105a89c2","criticalVetoes(uint256)":"78177ce9","emergencyPause(uint8)":"ca8c4d3a","emergencyUnpause(uint8)":"21e9e36f","executor()":"c34c08e5","failureCount(uint8)":"4b349a40","getCircuitBreakerStatus(uint8)":"f33c7fc0","getSlashRecord(uint256)":"05182a4b","globalPause()":"f12d54d8","globalPaused()":"61a552dc","globalUnpause()":"ce190578","governor()":"0c340a24","guardians(address)":"0633b14a","isGuardian(address)":"0c68ba21","isPaused(uint8)":"bc61e733","isVetoed(uint256)":"873def8c","karaToken()":"fcd36747","lastFailureTime(uint8)":"836bc014","overturnSlash(uint256,string)":"a6435111","owner()":"8da5cb5b","pauseEndTime(uint8)":"6f00f110","recordFailure(uint8)":"57ff7e09","removeGuardian(address)":"71404156","renounceOwnership()":"715018a6","resetFailureCount(uint8)":"3b428929","sam()":"7edba6c8","slashAgent(address,uint256,string)":"955ef8b3","slashCount()":"4d21497f","slashRecords(uint256)":"2f8d0e85","tierPaused(uint8)":"fb5b3cdc","totalSlashed()":"a201bbdd","transferOwnership(address)":"f2fde38b","treasury()":"61d027b3","triggerCircuitBreaker(uint8,uint256)":"6b56c29e","updateCircuitBreaker(uint8,uint256,uint256,uint256,bool)":"f46ec2e8","updateContracts(address,address,address,address)":"0b751279","updateSam(address)":"1e7dba63","vetoCritical(uint256,string)":"a866dcec","vetoReasons(uint256)":"62273e01"},"id":3}