{"abi":[{"type":"constructor","inputs":[{"name":"_karaToken","type":"address","internalType":"address"},{"name":"_governor","type":"address","internalType":"address"},{"name":"_safety","type":"address","internalType":"address"}],"stateMutability":"nonpayable"},{"type":"function","name":"AI500_SHARE","inputs":[],"outputs":[{"name":"","type":"uint256","internalType":"uint256"}],"stateMutability":"view"},{"type":"function","name":"BASIS_POINTS","inputs":[],"outputs":[{"name":"","type":"uint256","internalType":"uint256"}],"stateMutability":"view"},{"type":"function","name":"FOUR_YEARS","inputs":[],"outputs":[{"name":"","type":"uint256","internalType":"uint256"}],"stateMutability":"view"},{"type":"function","name":"FOUR_YEAR_MULTIPLIER","inputs":[],"outputs":[{"name":"","type":"uint256","internalType":"uint256"}],"stateMutability":"view"},{"type":"function","name":"NO_LOCK_MULTIPLIER","inputs":[],"outputs":[{"name":"","type":"uint256","internalType":"uint256"}],"stateMutability":"view"},{"type":"function","name":"ONE_YEAR","inputs":[],"outputs":[{"name":"","type":"uint256","internalType":"uint256"}],"stateMutability":"view"},{"type":"function","name":"ONE_YEAR_MULTIPLIER","inputs":[],"outputs":[{"name":"","type":"uint256","internalType":"uint256"}],"stateMutability":"view"},{"type":"function","name":"STAKERS_SHARE","inputs":[],"outputs":[{"name":"","type":"uint256","internalType":"uint256"}],"stateMutability":"view"},{"type":"function","name":"TREASURY_SHARE","inputs":[],"outputs":[{"name":"","type":"uint256","internalType":"uint256"}],"stateMutability":"view"},{"type":"function","name":"TWO_YEARS","inputs":[],"outputs":[{"name":"","type":"uint256","internalType":"uint256"}],"stateMutability":"view"},{"type":"function","name":"TWO_YEAR_MULTIPLIER","inputs":[],"outputs":[{"name":"","type":"uint256","internalType":"uint256"}],"stateMutability":"view"},{"type":"function","name":"ai500Reserve","inputs":[],"outputs":[{"name":"","type":"uint256","internalType":"uint256"}],"stateMutability":"view"},{"type":"function","name":"bounties","inputs":[{"name":"","type":"uint256","internalType":"uint256"}],"outputs":[{"name":"creator","type":"address","internalType":"address"},{"name":"amount","type":"uint256","internalType":"uint256"},{"name":"description","type":"string","internalType":"string"},{"name":"active","type":"bool","internalType":"bool"},{"name":"claimedBy","type":"address","internalType":"address"},{"name":"claimedAt","type":"uint256","internalType":"uint256"}],"stateMutability":"view"},{"type":"function","name":"bountyCount","inputs":[],"outputs":[{"name":"","type":"uint256","internalType":"uint256"}],"stateMutability":"view"},{"type":"function","name":"claimBounty","inputs":[{"name":"bountyId","type":"uint256","internalType":"uint256"},{"name":"claimer","type":"address","internalType":"address"}],"outputs":[],"stateMutability":"nonpayable"},{"type":"function","name":"claimRewards","inputs":[],"outputs":[],"stateMutability":"nonpayable"},{"type":"function","name":"createBounty","inputs":[{"name":"amount","type":"uint256","internalType":"uint256"},{"name":"description","type":"string","internalType":"string"}],"outputs":[{"name":"","type":"uint256","internalType":"uint256"}],"stateMutability":"nonpayable"},{"type":"function","name":"depositBounty","inputs":[{"name":"amount","type":"uint256","internalType":"uint256"}],"outputs":[],"stateMutability":"nonpayable"},{"type":"function","name":"distributeFees","inputs":[{"name":"amount","type":"uint256","internalType":"uint256"}],"outputs":[],"stateMutability":"nonpayable"},{"type":"function","name":"earned","inputs":[{"name":"account","type":"address","internalType":"address"}],"outputs":[{"name":"","type":"uint256","internalType":"uint256"}],"stateMutability":"view"},{"type":"function","name":"emergencyWithdraw","inputs":[{"name":"to","type":"address","internalType":"address"},{"name":"amount","type":"uint256","internalType":"uint256"},{"name":"reason","type":"string","internalType":"string"}],"outputs":[],"stateMutability":"nonpayable"},{"type":"function","name":"executeAI500Buyback","inputs":[{"name":"amount","type":"uint256","internalType":"uint256"}],"outputs":[],"stateMutability":"nonpayable"},{"type":"function","name":"getEstimatedAPR","inputs":[],"outputs":[{"name":"","type":"uint256","internalType":"uint256"}],"stateMutability":"view"},{"type":"function","name":"getStakerInfo","inputs":[{"name":"staker","type":"address","internalType":"address"}],"outputs":[{"name":"","type":"tuple","internalType":"struct KaraTreasury.StakerInfo","components":[{"name":"stakedAmount","type":"uint256","internalType":"uint256"},{"name":"lockEndTime","type":"uint256","internalType":"uint256"},{"name":"lastClaimTime","type":"uint256","internalType":"uint256"},{"name":"pendingRewards","type":"uint256","internalType":"uint256"},{"name":"timeMultiplier","type":"uint256","internalType":"uint256"},{"name":"totalClaimed","type":"uint256","internalType":"uint256"}]}],"stateMutability":"view"},{"type":"function","name":"getTreasuryStats","inputs":[],"outputs":[{"name":"_totalStaked","type":"uint256","internalType":"uint256"},{"name":"_totalStakers","type":"uint256","internalType":"uint256"},{"name":"_treasuryBalance","type":"uint256","internalType":"uint256"},{"name":"_ai500Reserve","type":"uint256","internalType":"uint256"},{"name":"_totalFeesReceived","type":"uint256","internalType":"uint256"},{"name":"_totalRewardsDistributed","type":"uint256","internalType":"uint256"}],"stateMutability":"view"},{"type":"function","name":"governor","inputs":[],"outputs":[{"name":"","type":"address","internalType":"contract IKaraGovernor"}],"stateMutability":"view"},{"type":"function","name":"karaToken","inputs":[],"outputs":[{"name":"","type":"address","internalType":"contract IKaraToken"}],"stateMutability":"view"},{"type":"function","name":"lastUpdateTime","inputs":[],"outputs":[{"name":"","type":"uint256","internalType":"uint256"}],"stateMutability":"view"},{"type":"function","name":"owner","inputs":[],"outputs":[{"name":"","type":"address","internalType":"address"}],"stateMutability":"view"},{"type":"function","name":"pause","inputs":[],"outputs":[],"stateMutability":"nonpayable"},{"type":"function","name":"paused","inputs":[],"outputs":[{"name":"","type":"bool","internalType":"bool"}],"stateMutability":"view"},{"type":"function","name":"renounceOwnership","inputs":[],"outputs":[],"stateMutability":"nonpayable"},{"type":"function","name":"rewardPerToken","inputs":[],"outputs":[{"name":"","type":"uint256","internalType":"uint256"}],"stateMutability":"view"},{"type":"function","name":"rewardPerTokenStored","inputs":[],"outputs":[{"name":"","type":"uint256","internalType":"uint256"}],"stateMutability":"view"},{"type":"function","name":"rewardRate","inputs":[],"outputs":[{"name":"","type":"uint256","internalType":"uint256"}],"stateMutability":"view"},{"type":"function","name":"safety","inputs":[],"outputs":[{"name":"","type":"address","internalType":"contract IKaraSafety"}],"stateMutability":"view"},{"type":"function","name":"stake","inputs":[{"name":"amount","type":"uint256","internalType":"uint256"}],"outputs":[],"stateMutability":"nonpayable"},{"type":"function","name":"stakeWithLock","inputs":[{"name":"amount","type":"uint256","internalType":"uint256"},{"name":"lockDuration","type":"uint256","internalType":"uint256"}],"outputs":[],"stateMutability":"nonpayable"},{"type":"function","name":"stakers","inputs":[{"name":"","type":"address","internalType":"address"}],"outputs":[{"name":"stakedAmount","type":"uint256","internalType":"uint256"},{"name":"lockEndTime","type":"uint256","internalType":"uint256"},{"name":"lastClaimTime","type":"uint256","internalType":"uint256"},{"name":"pendingRewards","type":"uint256","internalType":"uint256"},{"name":"timeMultiplier","type":"uint256","internalType":"uint256"},{"name":"totalClaimed","type":"uint256","internalType":"uint256"}],"stateMutability":"view"},{"type":"function","name":"totalFeesReceived","inputs":[],"outputs":[{"name":"","type":"uint256","internalType":"uint256"}],"stateMutability":"view"},{"type":"function","name":"totalRewardsDistributed","inputs":[],"outputs":[{"name":"","type":"uint256","internalType":"uint256"}],"stateMutability":"view"},{"type":"function","name":"totalStaked","inputs":[],"outputs":[{"name":"","type":"uint256","internalType":"uint256"}],"stateMutability":"view"},{"type":"function","name":"totalStakers","inputs":[],"outputs":[{"name":"","type":"uint256","internalType":"uint256"}],"stateMutability":"view"},{"type":"function","name":"transferOwnership","inputs":[{"name":"newOwner","type":"address","internalType":"address"}],"outputs":[],"stateMutability":"nonpayable"},{"type":"function","name":"treasuryBalance","inputs":[],"outputs":[{"name":"","type":"uint256","internalType":"uint256"}],"stateMutability":"view"},{"type":"function","name":"unpause","inputs":[],"outputs":[],"stateMutability":"nonpayable"},{"type":"function","name":"unstake","inputs":[{"name":"amount","type":"uint256","internalType":"uint256"}],"outputs":[],"stateMutability":"nonpayable"},{"type":"function","name":"updateContracts","inputs":[{"name":"_governor","type":"address","internalType":"address"},{"name":"_safety","type":"address","internalType":"address"}],"outputs":[],"stateMutability":"nonpayable"},{"type":"event","name":"BountyClaimed","inputs":[{"name":"bountyId","type":"uint256","indexed":true,"internalType":"uint256"},{"name":"claimer","type":"address","indexed":true,"internalType":"address"}],"anonymous":false},{"type":"event","name":"BountyCreated","inputs":[{"name":"bountyId","type":"uint256","indexed":true,"internalType":"uint256"},{"name":"creator","type":"address","indexed":true,"internalType":"address"},{"name":"amount","type":"uint256","indexed":false,"internalType":"uint256"},{"name":"description","type":"string","indexed":false,"internalType":"string"}],"anonymous":false},{"type":"event","name":"EmergencyWithdrawal","inputs":[{"name":"to","type":"address","indexed":true,"internalType":"address"},{"name":"amount","type":"uint256","indexed":false,"internalType":"uint256"},{"name":"reason","type":"string","indexed":false,"internalType":"string"}],"anonymous":false},{"type":"event","name":"FeesDistributed","inputs":[{"name":"totalFees","type":"uint256","indexed":false,"internalType":"uint256"},{"name":"stakersAmount","type":"uint256","indexed":false,"internalType":"uint256"},{"name":"ai500Amount","type":"uint256","indexed":false,"internalType":"uint256"},{"name":"treasuryAmount","type":"uint256","indexed":false,"internalType":"uint256"}],"anonymous":false},{"type":"event","name":"OwnershipTransferred","inputs":[{"name":"previousOwner","type":"address","indexed":true,"internalType":"address"},{"name":"newOwner","type":"address","indexed":true,"internalType":"address"}],"anonymous":false},{"type":"event","name":"Paused","inputs":[{"name":"account","type":"address","indexed":false,"internalType":"address"}],"anonymous":false},{"type":"event","name":"RewardRateUpdated","inputs":[{"name":"newRate","type":"uint256","indexed":false,"internalType":"uint256"}],"anonymous":false},{"type":"event","name":"RewardsClaimed","inputs":[{"name":"staker","type":"address","indexed":true,"internalType":"address"},{"name":"amount","type":"uint256","indexed":false,"internalType":"uint256"}],"anonymous":false},{"type":"event","name":"Staked","inputs":[{"name":"staker","type":"address","indexed":true,"internalType":"address"},{"name":"amount","type":"uint256","indexed":false,"internalType":"uint256"},{"name":"lockEndTime","type":"uint256","indexed":false,"internalType":"uint256"},{"name":"multiplier","type":"uint256","indexed":false,"internalType":"uint256"}],"anonymous":false},{"type":"event","name":"Unpaused","inputs":[{"name":"account","type":"address","indexed":false,"internalType":"address"}],"anonymous":false},{"type":"event","name":"Unstaked","inputs":[{"name":"staker","type":"address","indexed":true,"internalType":"address"},{"name":"amount","type":"uint256","indexed":false,"internalType":"uint256"}],"anonymous":false},{"type":"error","name":"EnforcedPause","inputs":[]},{"type":"error","name":"ExpectedPause","inputs":[]},{"type":"error","name":"OwnableInvalidOwner","inputs":[{"name":"owner","type":"address","internalType":"address"}]},{"type":"error","name":"OwnableUnauthorizedAccount","inputs":[{"name":"account","type":"address","internalType":"address"}]},{"type":"error","name":"ReentrancyGuardReentrantCall","inputs":[]}],"bytecode":{"object":"0x608060405234801561000f575f5ffd5b5060405161283838038061283883398101604081905261002e916101bc565b338061005457604051631e4fbdf760e01b81525f60048201526024015b60405180910390fd5b61005d81610152565b5060017f9b779b17422d0df92223018b32b4d1fa46e071723d6817e2486d003becc55f00556001600160a01b0383166100d85760405162461bcd60e51b815260206004820152601b60248201527f4b61726154726561737572793a20496e76616c696420746f6b656e0000000000604482015260640161004b565b600180546001600160a01b0319166001600160a01b038581169190911790915582161561011b57600280546001600160a01b0319166001600160a01b0384161790555b6001600160a01b0381161561014657600380546001600160a01b0319166001600160a01b0383161790555b505042600e55506101fc565b5f80546001600160a01b038381166001600160a01b0319831681178455604051919092169283917f8be0079c531659141344cd1fd0a4f28419497f9722a3daafe3b4186f6b6457e09190a35050565b80516001600160a01b03811681146101b7575f5ffd5b919050565b5f5f5f606084860312156101ce575f5ffd5b6101d7846101a1565b92506101e5602085016101a1565b91506101f3604085016101a1565b90509250925092565b61262f806102095f395ff3fe608060405234801561000f575f5ffd5b5060043610610296575f3560e01c8063817b1cd211610161578063cd3daf9d116100ca578063e692c49f11610084578063e692c49f146105b3578063ecd0410f146105c6578063ee172546146105cf578063f2fde38b146105d8578063fcd36747146105eb578063fe904b7a146105fe575f5ffd5b8063cd3daf9d14610563578063cfa663671461056b578063dc2f874414610573578063df136d6514610598578063e1f1c4a7146105a1578063e5a6cb55146105aa575f5ffd5b80639168ae721161011b5780639168ae72146104a55780639e626799146105145780639fbaf3de14610527578063a694fc3a14610530578063c8692e3f14610543578063c8f33c911461055a575f5ffd5b8063817b1cd21461045f5780638456cb591461046857806386989038146104705780638a8f048b146104795780638da5cb5b146104825780638ec988ec14610492575f5ffd5b80633b417d98116102035780636029bf9f116101bd5780636029bf9f146103b75780636ad0f968146103ca5780636e3f795a146103dd578063715018a6146103f0578063733bdef0146103f85780637b0a47ee14610456575f5ffd5b80633b417d981461035c5780633e362c96146103645780633f4ba83a1461036d57806354d4fad3146103755780635c975abb146103885780635d753659146103a4575f5ffd5b80632e17de78116102545780632e17de7814610312578063313dab20146103275780633269617414610330578063372500ab1461033957806339ea5dd9146103415780633a6f38b214610349575f5ffd5b80628cc2621461029a57806301edf6a0146102c05780630c340a24146102cb57806316d3bfbb146102f657806320113c7e14610301578063206188f414610309575b5f5ffd5b6102ad6102a8366004612102565b610609565b6040519081526020015b60405180910390f35b6102ad6303c2670081565b6002546102de906001600160a01b031681565b6040516001600160a01b0390911681526020016102b7565b6102ad6301e1338081565b6102ad60c881565b6102ad60085481565b61032561032036600461211b565b61068c565b005b6102ad60075481565b6102ad61138881565b610325610948565b6102ad6109b6565b6102ad610357366004612177565b6109fa565b6102ad609681565b6102ad600c5481565b610325610ca9565b6103256103833660046121bf565b610cb9565b5f54600160a01b900460ff1660405190151581526020016102b7565b6103256103b236600461211b565b610f24565b6103256103c536600461211b565b611035565b6103256103d83660046121e9565b611269565b6003546102de906001600160a01b031681565b610325611542565b61040b610406366004612102565b611553565b6040516102b791905f60c082019050825182526020830151602083015260408301516040830152606083015160608301526080830151608083015260a083015160a083015292915050565b6102ad600f5481565b6102ad60055481565b6103256115e6565b6102ad60065481565b6102ad610bb881565b5f546001600160a01b03166102de565b6103256104a036600461211b565b61162c565b6104e76104b3366004612102565b600460208190525f918252604090912080546001820154600283015460038401549484015460059094015492949193909286565b604080519687526020870195909552938501929092526060840152608083015260a082015260c0016102b7565b610325610522366004612209565b6116aa565b6102ad60095481565b61032561053e36600461211b565b6118ab565b600554600654600754600854600954600a546104e7565b6102ad600e5481565b6102ad611ace565b6102ad606481565b61058661058136600461211b565b611b25565b6040516102b79695949392919061225f565b6102ad600d5481565b6102ad61271081565b6102ad61012c81565b6103256105c13660046122ca565b611bf7565b6102ad6107d081565b6102ad600a5481565b6103256105e6366004612102565b611c5a565b6001546102de906001600160a01b031681565b6102ad630784ce0081565b6001600160a01b0381165f908152600460205260408120600d548290670de0b6b3a764000090610637611ace565b6106419190612306565b835461064d919061231f565b6106579190612336565b82600301546106669190612355565b9050606482600401548261067a919061231f565b6106849190612336565b949350505050565b610694611c94565b3361069d611ace565b600d5542600e556001600160a01b038116156106d8576106bc81610609565b6001600160a01b0382165f908152600460205260409020600301555b335f90815260046020526040902080546107325760405162461bcd60e51b81526020600482015260166024820152754b61726154726561737572793a204e6f207374616b6560501b60448201526064015b60405180910390fd5b5f831561073f5783610742565b81545b82549091508111156107965760405162461bcd60e51b815260206004820181905260248201527f4b61726154726561737572793a20496e73756666696369656e74207374616b656044820152606401610729565b6001820154156107f45781600101544210156107f45760405162461bcd60e51b815260206004820152601a60248201527f4b61726154726561737572793a205374696c6c206c6f636b65640000000000006044820152606401610729565b6003820154156108075761080733611caf565b80825f015f8282546108199190612306565b925050819055508060055f8282546108319190612306565b909155505081545f036108605760068054905f61084d83612368565b90915550505f6004830181905560018301555b61086933611e7e565b60015460405163a9059cbb60e01b8152336004820152602481018390526001600160a01b039091169063a9059cbb906044016020604051808303815f875af11580156108b7573d5f5f3e3d5ffd5b505050506040513d601f19601f820116820180604052508101906108db919061237d565b6108f75760405162461bcd60e51b81526004016107299061239c565b60405181815233907f0f5bb82176feb1b5e747e28471aa92156a04d9f3ab9f45f28e2d704232b93f759060200160405180910390a250505061094560015f5160206125da5f395f51905f5255565b50565b610950611c94565b33610959611ace565b600d5542600e556001600160a01b038116156109945761097881610609565b6001600160a01b0382165f908152600460205260409020600301555b61099d33611caf565b506109b460015f5160206125da5f395f51905f5255565b565b5f6005545f036109c557505f90565b670de0b6b3a7640000600f546301e133806109e0919061231f565b6109eb90606461231f565b6109f59190612336565b905090565b5f610a03611c94565b5f8411610a525760405162461bcd60e51b815260206004820152601c60248201527f4b61726154726561737572793a20496e76616c696420616d6f756e74000000006044820152606401610729565b81610a9f5760405162461bcd60e51b815260206004820152601f60248201527f4b61726154726561737572793a20456d707479206465736372697074696f6e006044820152606401610729565b6001546040516323b872dd60e01b81526001600160a01b03909116906323b872dd90610ad3903390309089906004016123d3565b6020604051808303815f875af1158015610aef573d5f5f3e3d5ffd5b505050506040513d601f19601f82011682018060405250810190610b13919061237d565b610b2f5760405162461bcd60e51b81526004016107299061239c565b600c8054905f610b3e836123f7565b91905055506040518060c00160405280336001600160a01b0316815260200185815260200184848080601f0160208091040260200160405190810160405280939291908181526020018383808284375f92018290525093855250506001602080850182905260408086018590526060909501849052600c548452600b815292849020855181546001600160a01b0319166001600160a01b03909116178155928501519083015550908201516002820190610bf890826124ae565b50606082015160038201805460808501516001600160a01b031661010002610100600160a81b0319931515939093166001600160a81b03199091161791909117905560a090910151600490910155600c546040513391907faa830c985894057f0d100743defcad006f0a1abc40d080c9a23acc9a8110684990610c809088908890889061256d565b60405180910390a350600c54610ca260015f5160206125da5f395f51905f5255565b9392505050565b610cb1611f54565b6109b4611f80565b610cc1611c94565b6002546001600160a01b0316331480610ce357505f546001600160a01b031633145b610cff5760405162461bcd60e51b8152600401610729906125a2565b6001600160a01b038116610d555760405162461bcd60e51b815260206004820152601d60248201527f4b61726154726561737572793a20496e76616c696420636c61696d65720000006044820152606401610729565b5f828152600b60205260409020600381015460ff16610db65760405162461bcd60e51b815260206004820152601f60248201527f4b61726154726561737572793a20426f756e7479206e6f7420616374697665006044820152606401610729565b600381015461010090046001600160a01b031615610e165760405162461bcd60e51b815260206004820152601d60248201527f4b61726154726561737572793a20416c726561647920636c61696d65640000006044820152606401610729565b6003810180546001600160a81b0319166101006001600160a01b038581169182029290921790925542600480850191909155600180549085015460405163a9059cbb60e01b815292830194909452602482019390935291169063a9059cbb906044016020604051808303815f875af1158015610e94573d5f5f3e3d5ffd5b505050506040513d601f19601f82011682018060405250810190610eb8919061237d565b610ed45760405162461bcd60e51b81526004016107299061239c565b6040516001600160a01b0383169084907fbf59c0d059a57ebf273b4b1643599fc4b48cf5effdd82113a740ed64d262ec93905f90a350610f2060015f5160206125da5f395f51905f5255565b5050565b610f2c611c94565b5f8111610f7b5760405162461bcd60e51b815260206004820152601c60248201527f4b61726154726561737572793a20496e76616c696420616d6f756e74000000006044820152606401610729565b6001546040516323b872dd60e01b81526001600160a01b03909116906323b872dd90610faf903390309086906004016123d3565b6020604051808303815f875af1158015610fcb573d5f5f3e3d5ffd5b505050506040513d601f19601f82011682018060405250810190610fef919061237d565b61100b5760405162461bcd60e51b81526004016107299061239c565b8060075f82825461101c9190612355565b909155505060015f5160206125da5f395f51905f525550565b61103d611c94565b5f81116110845760405162461bcd60e51b81526020600482015260156024820152744b61726154726561737572793a204e6f206665657360581b6044820152606401610729565b6001546040516323b872dd60e01b81526001600160a01b03909116906323b872dd906110b8903390309086906004016123d3565b6020604051808303815f875af11580156110d4573d5f5f3e3d5ffd5b505050506040513d601f19601f820116820180604052508101906110f8919061237d565b6111145760405162461bcd60e51b81526004016107299061239c565b8060095f8282546111259190612355565b909155505f905061271061113b610bb88461231f565b6111459190612336565b90505f6127106111576107d08561231f565b6111619190612336565b90505f8161116f8486612306565b6111799190612306565b600554909150156111cd57600554620151809061119e85670de0b6b3a764000061231f565b6111a89190612336565b6111b29190612336565b600f5f8282546111c29190612355565b909155506111da9050565b6111d78382612355565b90505b8160085f8282546111eb9190612355565b925050819055508060075f8282546112039190612355565b90915550506040805185815260208101859052908101839052606081018290527f78490b24a020086d2701460dc169a540280c517bef9cdcd742f751a9099922a39060800160405180910390a150505061094560015f5160206125da5f395f51905f5255565b611271611c94565b611279611fd4565b33611282611ace565b600d5542600e556001600160a01b038116156112bd576112a181610609565b6001600160a01b0382165f908152600460205260409020600301555b683635c9adc5dea000008310156113165760405162461bcd60e51b815260206004820152601d60248201527f4b61726154726561737572793a204d696e696d756d20314b204b4152410000006044820152606401610729565b6301e1338082148061132b57506303c2670082145b806113395750630784ce0082145b6113915760405162461bcd60e51b815260206004820152602360248201527f4b61726154726561737572793a20496e76616c6964206c6f636b20647572617460448201526234b7b760e91b6064820152608401610729565b6001546040516323b872dd60e01b81526001600160a01b03909116906323b872dd906113c5903390309088906004016123d3565b6020604051808303815f875af11580156113e1573d5f5f3e3d5ffd5b505050506040513d601f19601f82011682018060405250810190611405919061237d565b6114215760405162461bcd60e51b81526004016107299061239c565b335f90815260046020526040812054900361144b5760068054905f611445836123f7565b91905055505b5f6301e13380830361145f57506096611477565b6303c267008303611472575060c8611477565b5061012c5b5f6114828442612355565b335f908152600460205260408120805492935087929091906114a5908490612355565b9091555050335f90815260046020819052604082206001810184905501839055600580548792906114d7908490612355565b909155506114e6905033611e7e565b604080518681526020810183905290810183905233907fb4caaf29adda3eefee3ad552a8e85058589bf834c7466cae4ee58787f70589ed9060600160405180910390a2505050610f2060015f5160206125da5f395f51905f5255565b61154a611f54565b6109b45f611ffe565b6115866040518060c001604052805f81526020015f81526020015f81526020015f81526020015f81526020015f81525090565b506001600160a01b03165f90815260046020818152604092839020835160c081018552815481526001820154928101929092526002810154938201939093526003830154606082015290820154608082015260059091015460a082015290565b6003546001600160a01b031633148061160857505f546001600160a01b031633145b6116245760405162461bcd60e51b8152600401610729906125a2565b6109b461204d565b611634611f54565b6008548111156116915760405162461bcd60e51b815260206004820152602260248201527f4b61726154726561737572793a20496e73756666696369656e74207265736572604482015261766560f01b6064820152608401610729565b8060085f8282546116a29190612306565b909155505050565b6116b2611c94565b6003546001600160a01b03163314806116d457505f546001600160a01b031633145b6116f05760405162461bcd60e51b8152600401610729906125a2565b6001600160a01b0384166117465760405162461bcd60e51b815260206004820152601d60248201527f4b61726154726561737572793a20496e76616c696420616464726573730000006044820152606401610729565b6007548311156117a45760405162461bcd60e51b815260206004820152602360248201527f4b61726154726561737572793a20496e73756666696369656e7420747265617360448201526275727960e81b6064820152608401610729565b8260075f8282546117b59190612306565b909155505060015460405163a9059cbb60e01b81526001600160a01b038681166004830152602482018690529091169063a9059cbb906044016020604051808303815f875af115801561180a573d5f5f3e3d5ffd5b505050506040513d601f19601f8201168201806040525081019061182e919061237d565b61184a5760405162461bcd60e51b81526004016107299061239c565b836001600160a01b03167f0b6611f2b90ce7e47b1f8bfc81e38fb1a210f6766c91b8c8d5ee36305d7520608484846040516118879392919061256d565b60405180910390a26118a560015f5160206125da5f395f51905f5255565b50505050565b6118b3611c94565b6118bb611fd4565b336118c4611ace565b600d5542600e556001600160a01b038116156118ff576118e381610609565b6001600160a01b0382165f908152600460205260409020600301555b683635c9adc5dea000008210156119585760405162461bcd60e51b815260206004820152601d60248201527f4b61726154726561737572793a204d696e696d756d20314b204b4152410000006044820152606401610729565b6001546040516323b872dd60e01b81526001600160a01b03909116906323b872dd9061198c903390309087906004016123d3565b6020604051808303815f875af11580156119a8573d5f5f3e3d5ffd5b505050506040513d601f19601f820116820180604052508101906119cc919061237d565b6119e85760405162461bcd60e51b81526004016107299061239c565b335f908152600460205260408120549003611a125760068054905f611a0c836123f7565b91905055505b335f9081526004602052604081208054849290611a30908490612355565b9091555050335f908152600460208190526040822060649181019190915560010181905560058054849290611a66908490612355565b90915550611a75905033611e7e565b604080518381525f6020820152606481830152905133917fb4caaf29adda3eefee3ad552a8e85058589bf834c7466cae4ee58787f70589ed919081900360600190a25061094560015f5160206125da5f395f51905f5255565b5f6005545f03611adf5750600d5490565b600554600e54611aef9042612306565b600f54611afc919061231f565b611b0e90670de0b6b3a764000061231f565b611b189190612336565b600d546109f59190612355565b600b6020525f90815260409020805460018201546002830180546001600160a01b03909316939192611b5690612423565b80601f0160208091040260200160405190810160405280929190818152602001828054611b8290612423565b8015611bcd5780601f10611ba457610100808354040283529160200191611bcd565b820191905f5260205f20905b815481529060010190602001808311611bb057829003601f168201915b505050506003830154600490930154919260ff8116926101009091046001600160a01b0316915086565b611bff611f54565b6001600160a01b03821615611c2a57600280546001600160a01b0319166001600160a01b0384161790555b6001600160a01b03811615610f2057600380546001600160a01b0383166001600160a01b03199091161790555050565b611c62611f54565b6001600160a01b038116611c8b57604051631e4fbdf760e01b81525f6004820152602401610729565b61094581611ffe565b611c9c61208f565b60025f5160206125da5f395f51905f5255565b6001600160a01b0381165f9081526004602052604090206003015480611d175760405162461bcd60e51b815260206004820152601860248201527f4b61726154726561737572793a204e6f207265776172647300000000000000006044820152606401610729565b6001600160a01b0382165f908152600460205260408120600381018290554260028201556005018054839290611d4e908490612355565b9250508190555080600a5f828254611d669190612355565b909155505060015460405163a9059cbb60e01b81526001600160a01b038481166004830152602482018490529091169063a9059cbb906044016020604051808303815f875af1158015611dbb573d5f5f3e3d5ffd5b505050506040513d601f19601f82011682018060405250810190611ddf919061237d565b611e375760405162461bcd60e51b8152602060048201526024808201527f4b61726154726561737572793a20526577617264207472616e736665722066616044820152631a5b195960e21b6064820152608401610729565b816001600160a01b03167ffc30cddea38e2bf4d6ea7d3f9ed3b6ad7f176419f4963bd81318067a4aee73fe82604051611e7291815260200190565b60405180910390a25050565b6002546001600160a01b031615610945576001600160a01b038181165f81815260046020818152604092839020835160c081018552815480825260018301549382018490526002808401548388015260038401546060840152838601546080840181905260059094015460a0840152549551635ae5703b60e11b8152948501969096526024840195909552604483019190915260648201529192169063b5cae076906084015f604051808303815f87803b158015611f3a575f5ffd5b505af1158015611f4c573d5f5f3e3d5ffd5b505050505050565b5f546001600160a01b031633146109b45760405163118cdaa760e01b8152336004820152602401610729565b611f886120be565b5f805460ff60a01b191690557f5db9ee0a495bf2e6ff9c91a7834c1ba4fdd244a5e8aa4e537bd38aeae4b073aa335b6040516001600160a01b03909116815260200160405180910390a1565b5f54600160a01b900460ff16156109b45760405163d93c066560e01b815260040160405180910390fd5b5f80546001600160a01b038381166001600160a01b0319831681178455604051919092169283917f8be0079c531659141344cd1fd0a4f28419497f9722a3daafe3b4186f6b6457e09190a35050565b612055611fd4565b5f805460ff60a01b1916600160a01b1790557f62e78cea01bee320cd4e420270b5ea74000d11b0c9f74754ebdbfc544b05a258611fb73390565b5f5160206125da5f395f51905f52546002036109b457604051633ee5aeb560e01b815260040160405180910390fd5b5f54600160a01b900460ff166109b457604051638dfc202b60e01b815260040160405180910390fd5b80356001600160a01b03811681146120fd575f5ffd5b919050565b5f60208284031215612112575f5ffd5b610ca2826120e7565b5f6020828403121561212b575f5ffd5b5035919050565b5f5f83601f840112612142575f5ffd5b50813567ffffffffffffffff811115612159575f5ffd5b602083019150836020828501011115612170575f5ffd5b9250929050565b5f5f5f60408486031215612189575f5ffd5b83359250602084013567ffffffffffffffff8111156121a6575f5ffd5b6121b286828701612132565b9497909650939450505050565b5f5f604083850312156121d0575f5ffd5b823591506121e0602084016120e7565b90509250929050565b5f5f604083850312156121fa575f5ffd5b50508035926020909101359150565b5f5f5f5f6060858703121561221c575f5ffd5b612225856120e7565b935060208501359250604085013567ffffffffffffffff811115612247575f5ffd5b61225387828801612132565b95989497509550505050565b60018060a01b038716815285602082015260c060408201525f85518060c0840152806020880160e085015e5f60e082850181019190915295151560608401526001600160a01b039490941660808301525060a0810191909152601f909101601f191601019392505050565b5f5f604083850312156122db575f5ffd5b6122e4836120e7565b91506121e0602084016120e7565b634e487b7160e01b5f52601160045260245ffd5b81810381811115612319576123196122f2565b92915050565b8082028115828204841417612319576123196122f2565b5f8261235057634e487b7160e01b5f52601260045260245ffd5b500490565b80820180821115612319576123196122f2565b5f81612376576123766122f2565b505f190190565b5f6020828403121561238d575f5ffd5b81518015158114610ca2575f5ffd5b6020808252601d908201527f4b61726154726561737572793a205472616e73666572206661696c6564000000604082015260600190565b6001600160a01b039384168152919092166020820152604081019190915260600190565b5f60018201612408576124086122f2565b5060010190565b634e487b7160e01b5f52604160045260245ffd5b600181811c9082168061243757607f821691505b60208210810361245557634e487b7160e01b5f52602260045260245ffd5b50919050565b601f8211156124a957828211156124a957805f5260205f20601f840160051c602085101561248657505f5b90810190601f840160051c035f5b81811015611f4c575f83820155600101612494565b505050565b815167ffffffffffffffff8111156124c8576124c861240f565b6124dc816124d68454612423565b8461245b565b6020601f82116001811461250e575f83156124f75750848201515b5f19600385901b1c1916600184901b178455612566565b5f84815260208120601f198516915b8281101561253d578785015182556020948501946001909201910161251d565b508482101561255a57868401515f19600387901b60f8161c191681555b505060018360011b0184555b5050505050565b83815260406020820152816040820152818360608301375f818301606090810191909152601f909201601f1916010192915050565b6020808252601a908201527f4b61726154726561737572793a20556e617574686f72697a656400000000000060408201526060019056fe9b779b17422d0df92223018b32b4d1fa46e071723d6817e2486d003becc55f00a26469706673582212202f0472c75ef2fafecd6f8486c0657c29245c01da51b40bf5e49bfc2a7bbfd4f164736f6c63430008210033","linkReferences":{}},"methodIdentifiers":{"AI500_SHARE()":"ecd0410f","BASIS_POINTS()":"e1f1c4a7","FOUR_YEARS()":"fe904b7a","FOUR_YEAR_MULTIPLIER()":"e5a6cb55","NO_LOCK_MULTIPLIER()":"cfa66367","ONE_YEAR()":"16d3bfbb","ONE_YEAR_MULTIPLIER()":"3b417d98","STAKERS_SHARE()":"8a8f048b","TREASURY_SHARE()":"32696174","TWO_YEARS()":"01edf6a0","TWO_YEAR_MULTIPLIER()":"20113c7e","ai500Reserve()":"206188f4","bounties(uint256)":"dc2f8744","bountyCount()":"3e362c96","claimBounty(uint256,address)":"54d4fad3","claimRewards()":"372500ab","createBounty(uint256,string)":"3a6f38b2","depositBounty(uint256)":"5d753659","distributeFees(uint256)":"6029bf9f","earned(address)":"008cc262","emergencyWithdraw(address,uint256,string)":"9e626799","executeAI500Buyback(uint256)":"8ec988ec","getEstimatedAPR()":"39ea5dd9","getStakerInfo(address)":"733bdef0","getTreasuryStats()":"c8692e3f","governor()":"0c340a24","karaToken()":"fcd36747","lastUpdateTime()":"c8f33c91","owner()":"8da5cb5b","pause()":"8456cb59","paused()":"5c975abb","renounceOwnership()":"715018a6","rewardPerToken()":"cd3daf9d","rewardPerTokenStored()":"df136d65","rewardRate()":"7b0a47ee","safety()":"6e3f795a","stake(uint256)":"a694fc3a","stakeWithLock(uint256,uint256)":"6ad0f968","stakers(address)":"9168ae72","totalFeesReceived()":"9fbaf3de","totalRewardsDistributed()":"ee172546","totalStaked()":"817b1cd2","totalStakers()":"86989038","transferOwnership(address)":"f2fde38b","treasuryBalance()":"313dab20","unpause()":"3f4ba83a","unstake(uint256)":"2e17de78","updateContracts(address,address)":"e692c49f"},"id":4}